{
	"contracts/UniswapV3/addLiquidityV3.sol": {
		"UniswapV3SwapExamples": {
			"abi": [
				{
					"inputs": [
						{
							"internalType": "bytes",
							"name": "path",
							"type": "bytes"
						},
						{
							"internalType": "address",
							"name": "tokenIn",
							"type": "address"
						},
						{
							"internalType": "uint256",
							"name": "amountIn",
							"type": "uint256"
						}
					],
					"name": "swapExactInputMultiHop",
					"outputs": [
						{
							"internalType": "uint256",
							"name": "amountOut",
							"type": "uint256"
						}
					],
					"stateMutability": "nonpayable",
					"type": "function"
				},
				{
					"inputs": [
						{
							"internalType": "address",
							"name": "tokenIn",
							"type": "address"
						},
						{
							"internalType": "address",
							"name": "tokenOut",
							"type": "address"
						},
						{
							"internalType": "uint24",
							"name": "poolFee",
							"type": "uint24"
						},
						{
							"internalType": "uint256",
							"name": "amountIn",
							"type": "uint256"
						}
					],
					"name": "swapExactInputSingleHop",
					"outputs": [
						{
							"internalType": "uint256",
							"name": "amountOut",
							"type": "uint256"
						}
					],
					"stateMutability": "nonpayable",
					"type": "function"
				}
			],
			"devdoc": {
				"kind": "dev",
				"methods": {},
				"version": 1
			},
			"evm": {
				"assembly": "    /* \"contracts/UniswapV3/addLiquidityV3.sol\":61:1633  contract UniswapV3SwapExamples {... */\n  mstore(0x40, 0x80)\n  callvalue\n  dup1\n  iszero\n  tag_1\n  jumpi\n  0x00\n  dup1\n  revert\ntag_1:\n  pop\n  dataSize(sub_0)\n  dup1\n  dataOffset(sub_0)\n  0x00\n  codecopy\n  0x00\n  return\nstop\n\nsub_0: assembly {\n        /* \"contracts/UniswapV3/addLiquidityV3.sol\":61:1633  contract UniswapV3SwapExamples {... */\n      mstore(0x40, 0x80)\n      callvalue\n      dup1\n      iszero\n      tag_1\n      jumpi\n      0x00\n      dup1\n      revert\n    tag_1:\n      pop\n      jumpi(tag_2, lt(calldatasize, 0x04))\n      shr(0xe0, calldataload(0x00))\n      dup1\n      0x93842751\n      eq\n      tag_3\n      jumpi\n      dup1\n      0xb57084f7\n      eq\n      tag_4\n      jumpi\n    tag_2:\n      0x00\n      dup1\n      revert\n        /* \"contracts/UniswapV3/addLiquidityV3.sol\":202:1009  function swapExactInputSingleHop(... */\n    tag_3:\n      tag_5\n      0x04\n      dup1\n      calldatasize\n      sub\n      dup2\n      add\n      swap1\n      tag_6\n      swap2\n      swap1\n      tag_7\n      jump\t// in\n    tag_6:\n      tag_8\n      jump\t// in\n    tag_5:\n      mload(0x40)\n      tag_9\n      swap2\n      swap1\n      tag_10\n      jump\t// in\n    tag_9:\n      mload(0x40)\n      dup1\n      swap2\n      sub\n      swap1\n      return\n        /* \"contracts/UniswapV3/addLiquidityV3.sol\":1017:1630  function swapExactInputMultiHop(... */\n    tag_4:\n      tag_11\n      0x04\n      dup1\n      calldatasize\n      sub\n      dup2\n      add\n      swap1\n      tag_12\n      swap2\n      swap1\n      tag_13\n      jump\t// in\n    tag_12:\n      tag_14\n      jump\t// in\n    tag_11:\n      mload(0x40)\n      tag_15\n      swap2\n      swap1\n      tag_10\n      jump\t// in\n    tag_15:\n      mload(0x40)\n      dup1\n      swap2\n      sub\n      swap1\n      return\n        /* \"contracts/UniswapV3/addLiquidityV3.sol\":202:1009  function swapExactInputSingleHop(... */\n    tag_8:\n        /* \"contracts/UniswapV3/addLiquidityV3.sol\":362:376  uint amountOut */\n      0x00\n        /* \"contracts/UniswapV3/addLiquidityV3.sol\":396:403  tokenIn */\n      dup5\n        /* \"contracts/UniswapV3/addLiquidityV3.sol\":389:417  IERC20(tokenIn).transferFrom */\n      0xffffffffffffffffffffffffffffffffffffffff\n      and\n      0x23b872dd\n        /* \"contracts/UniswapV3/addLiquidityV3.sol\":418:428  msg.sender */\n      caller\n        /* \"contracts/UniswapV3/addLiquidityV3.sol\":438:442  this */\n      address\n        /* \"contracts/UniswapV3/addLiquidityV3.sol\":445:453  amountIn */\n      dup6\n        /* \"contracts/UniswapV3/addLiquidityV3.sol\":389:454  IERC20(tokenIn).transferFrom(msg.sender, address(this), amountIn) */\n      mload(0x40)\n      dup5\n      0xffffffff\n      and\n      0xe0\n      shl\n      dup2\n      mstore\n      0x04\n      add\n      tag_17\n      swap4\n      swap3\n      swap2\n      swap1\n      tag_18\n      jump\t// in\n    tag_17:\n      0x20\n      mload(0x40)\n      dup1\n      dup4\n      sub\n      dup2\n      0x00\n      dup8\n      gas\n      call\n      iszero\n      dup1\n      iszero\n      tag_20\n      jumpi\n      returndatasize\n      0x00\n      dup1\n      returndatacopy\n      revert(0x00, returndatasize)\n    tag_20:\n      pop\n      pop\n      pop\n      pop\n      mload(0x40)\n      returndatasize\n      not(0x1f)\n      0x1f\n      dup3\n      add\n      and\n      dup3\n      add\n      dup1\n      0x40\n      mstore\n      pop\n      dup2\n      add\n      swap1\n      tag_21\n      swap2\n      swap1\n      tag_22\n      jump\t// in\n    tag_21:\n      pop\n        /* \"contracts/UniswapV3/addLiquidityV3.sol\":472:479  tokenIn */\n      dup5\n        /* \"contracts/UniswapV3/addLiquidityV3.sol\":465:488  IERC20(tokenIn).approve */\n      0xffffffffffffffffffffffffffffffffffffffff\n      and\n      0x095ea7b3\n        /* \"contracts/UniswapV3/addLiquidityV3.sol\":150:192  0xE592427A0AEce92De3Edee1F18E0157C05861564 */\n      0xe592427a0aece92de3edee1f18e0157c05861564\n        /* \"contracts/UniswapV3/addLiquidityV3.sol\":506:514  amountIn */\n      dup5\n        /* \"contracts/UniswapV3/addLiquidityV3.sol\":465:515  IERC20(tokenIn).approve(address(router), amountIn) */\n      mload(0x40)\n      dup4\n      0xffffffff\n      and\n      0xe0\n      shl\n      dup2\n      mstore\n      0x04\n      add\n      tag_23\n      swap3\n      swap2\n      swap1\n      tag_24\n      jump\t// in\n    tag_23:\n      0x20\n      mload(0x40)\n      dup1\n      dup4\n      sub\n      dup2\n      0x00\n      dup8\n      gas\n      call\n      iszero\n      dup1\n      iszero\n      tag_26\n      jumpi\n      returndatasize\n      0x00\n      dup1\n      returndatacopy\n      revert(0x00, returndatasize)\n    tag_26:\n      pop\n      pop\n      pop\n      pop\n      mload(0x40)\n      returndatasize\n      not(0x1f)\n      0x1f\n      dup3\n      add\n      and\n      dup3\n      add\n      dup1\n      0x40\n      mstore\n      pop\n      dup2\n      add\n      swap1\n      tag_27\n      swap2\n      swap1\n      tag_22\n      jump\t// in\n    tag_27:\n      pop\n        /* \"contracts/UniswapV3/addLiquidityV3.sol\":528:576  ISwapRouter.ExactInputSingleParams memory params */\n      0x00\n        /* \"contracts/UniswapV3/addLiquidityV3.sol\":579:945  ISwapRouter... */\n      mload(0x40)\n      dup1\n      0x0100\n      add\n      0x40\n      mstore\n      dup1\n        /* \"contracts/UniswapV3/addLiquidityV3.sol\":656:663  tokenIn */\n      dup8\n        /* \"contracts/UniswapV3/addLiquidityV3.sol\":579:945  ISwapRouter... */\n      0xffffffffffffffffffffffffffffffffffffffff\n      and\n      dup2\n      mstore\n      0x20\n      add\n        /* \"contracts/UniswapV3/addLiquidityV3.sol\":692:700  tokenOut */\n      dup7\n        /* \"contracts/UniswapV3/addLiquidityV3.sol\":579:945  ISwapRouter... */\n      0xffffffffffffffffffffffffffffffffffffffff\n      and\n      dup2\n      mstore\n      0x20\n      add\n        /* \"contracts/UniswapV3/addLiquidityV3.sol\":724:731  poolFee */\n      dup6\n        /* \"contracts/UniswapV3/addLiquidityV3.sol\":579:945  ISwapRouter... */\n      0xffffff\n      and\n      dup2\n      mstore\n      0x20\n      add\n        /* \"contracts/UniswapV3/addLiquidityV3.sol\":761:771  msg.sender */\n      caller\n        /* \"contracts/UniswapV3/addLiquidityV3.sol\":579:945  ISwapRouter... */\n      0xffffffffffffffffffffffffffffffffffffffff\n      and\n      dup2\n      mstore\n      0x20\n      add\n        /* \"contracts/UniswapV3/addLiquidityV3.sol\":800:815  block.timestamp */\n      timestamp\n        /* \"contracts/UniswapV3/addLiquidityV3.sol\":579:945  ISwapRouter... */\n      dup2\n      mstore\n      0x20\n      add\n        /* \"contracts/UniswapV3/addLiquidityV3.sol\":844:852  amountIn */\n      dup5\n        /* \"contracts/UniswapV3/addLiquidityV3.sol\":579:945  ISwapRouter... */\n      dup2\n      mstore\n      0x20\n      add\n        /* \"contracts/UniswapV3/addLiquidityV3.sol\":889:890  0 */\n      0x00\n        /* \"contracts/UniswapV3/addLiquidityV3.sol\":579:945  ISwapRouter... */\n      dup2\n      mstore\n      0x20\n      add\n        /* \"contracts/UniswapV3/addLiquidityV3.sol\":928:929  0 */\n      0x00\n        /* \"contracts/UniswapV3/addLiquidityV3.sol\":579:945  ISwapRouter... */\n      0xffffffffffffffffffffffffffffffffffffffff\n      and\n      dup2\n      mstore\n      pop\n        /* \"contracts/UniswapV3/addLiquidityV3.sol\":528:945  ISwapRouter.ExactInputSingleParams memory params = ISwapRouter... */\n      swap1\n      pop\n        /* \"contracts/UniswapV3/addLiquidityV3.sol\":150:192  0xE592427A0AEce92De3Edee1F18E0157C05861564 */\n      0xe592427a0aece92de3edee1f18e0157c05861564\n        /* \"contracts/UniswapV3/addLiquidityV3.sol\":970:993  router.exactInputSingle */\n      0xffffffffffffffffffffffffffffffffffffffff\n      and\n      0x414bf389\n        /* \"contracts/UniswapV3/addLiquidityV3.sol\":994:1000  params */\n      dup3\n        /* \"contracts/UniswapV3/addLiquidityV3.sol\":970:1001  router.exactInputSingle(params) */\n      mload(0x40)\n      dup3\n      0xffffffff\n      and\n      0xe0\n      shl\n      dup2\n      mstore\n      0x04\n      add\n      tag_28\n      swap2\n      swap1\n      tag_29\n      jump\t// in\n    tag_28:\n      0x20\n      mload(0x40)\n      dup1\n      dup4\n      sub\n      dup2\n      0x00\n      dup8\n      gas\n      call\n      iszero\n      dup1\n      iszero\n      tag_31\n      jumpi\n      returndatasize\n      0x00\n      dup1\n      returndatacopy\n      revert(0x00, returndatasize)\n    tag_31:\n      pop\n      pop\n      pop\n      pop\n      mload(0x40)\n      returndatasize\n      not(0x1f)\n      0x1f\n      dup3\n      add\n      and\n      dup3\n      add\n      dup1\n      0x40\n      mstore\n      pop\n      dup2\n      add\n      swap1\n      tag_32\n      swap2\n      swap1\n      tag_33\n      jump\t// in\n    tag_32:\n        /* \"contracts/UniswapV3/addLiquidityV3.sol\":958:1001  amountOut = router.exactInputSingle(params) */\n      swap2\n      pop\n        /* \"contracts/UniswapV3/addLiquidityV3.sol\":378:1009  {... */\n      pop\n        /* \"contracts/UniswapV3/addLiquidityV3.sol\":202:1009  function swapExactInputSingleHop(... */\n      swap5\n      swap4\n      pop\n      pop\n      pop\n      pop\n      jump\t// out\n        /* \"contracts/UniswapV3/addLiquidityV3.sol\":1017:1630  function swapExactInputMultiHop(... */\n    tag_14:\n        /* \"contracts/UniswapV3/addLiquidityV3.sol\":1154:1168  uint amountOut */\n      0x00\n        /* \"contracts/UniswapV3/addLiquidityV3.sol\":1188:1195  tokenIn */\n      dup3\n        /* \"contracts/UniswapV3/addLiquidityV3.sol\":1181:1209  IERC20(tokenIn).transferFrom */\n      0xffffffffffffffffffffffffffffffffffffffff\n      and\n      0x23b872dd\n        /* \"contracts/UniswapV3/addLiquidityV3.sol\":1210:1220  msg.sender */\n      caller\n        /* \"contracts/UniswapV3/addLiquidityV3.sol\":1230:1234  this */\n      address\n        /* \"contracts/UniswapV3/addLiquidityV3.sol\":1237:1245  amountIn */\n      dup6\n        /* \"contracts/UniswapV3/addLiquidityV3.sol\":1181:1246  IERC20(tokenIn).transferFrom(msg.sender, address(this), amountIn) */\n      mload(0x40)\n      dup5\n      0xffffffff\n      and\n      0xe0\n      shl\n      dup2\n      mstore\n      0x04\n      add\n      tag_35\n      swap4\n      swap3\n      swap2\n      swap1\n      tag_18\n      jump\t// in\n    tag_35:\n      0x20\n      mload(0x40)\n      dup1\n      dup4\n      sub\n      dup2\n      0x00\n      dup8\n      gas\n      call\n      iszero\n      dup1\n      iszero\n      tag_37\n      jumpi\n      returndatasize\n      0x00\n      dup1\n      returndatacopy\n      revert(0x00, returndatasize)\n    tag_37:\n      pop\n      pop\n      pop\n      pop\n      mload(0x40)\n      returndatasize\n      not(0x1f)\n      0x1f\n      dup3\n      add\n      and\n      dup3\n      add\n      dup1\n      0x40\n      mstore\n      pop\n      dup2\n      add\n      swap1\n      tag_38\n      swap2\n      swap1\n      tag_22\n      jump\t// in\n    tag_38:\n      pop\n        /* \"contracts/UniswapV3/addLiquidityV3.sol\":1264:1271  tokenIn */\n      dup3\n        /* \"contracts/UniswapV3/addLiquidityV3.sol\":1257:1280  IERC20(tokenIn).approve */\n      0xffffffffffffffffffffffffffffffffffffffff\n      and\n      0x095ea7b3\n        /* \"contracts/UniswapV3/addLiquidityV3.sol\":150:192  0xE592427A0AEce92De3Edee1F18E0157C05861564 */\n      0xe592427a0aece92de3edee1f18e0157c05861564\n        /* \"contracts/UniswapV3/addLiquidityV3.sol\":1298:1306  amountIn */\n      dup5\n        /* \"contracts/UniswapV3/addLiquidityV3.sol\":1257:1307  IERC20(tokenIn).approve(address(router), amountIn) */\n      mload(0x40)\n      dup4\n      0xffffffff\n      and\n      0xe0\n      shl\n      dup2\n      mstore\n      0x04\n      add\n      tag_39\n      swap3\n      swap2\n      swap1\n      tag_24\n      jump\t// in\n    tag_39:\n      0x20\n      mload(0x40)\n      dup1\n      dup4\n      sub\n      dup2\n      0x00\n      dup8\n      gas\n      call\n      iszero\n      dup1\n      iszero\n      tag_41\n      jumpi\n      returndatasize\n      0x00\n      dup1\n      returndatacopy\n      revert(0x00, returndatasize)\n    tag_41:\n      pop\n      pop\n      pop\n      pop\n      mload(0x40)\n      returndatasize\n      not(0x1f)\n      0x1f\n      dup3\n      add\n      and\n      dup3\n      add\n      dup1\n      0x40\n      mstore\n      pop\n      dup2\n      add\n      swap1\n      tag_42\n      swap2\n      swap1\n      tag_22\n      jump\t// in\n    tag_42:\n      pop\n        /* \"contracts/UniswapV3/addLiquidityV3.sol\":1320:1362  ISwapRouter.ExactInputParams memory params */\n      0x00\n        /* \"contracts/UniswapV3/addLiquidityV3.sol\":1365:1574  ISwapRouter.ExactInputParams({... */\n      mload(0x40)\n      dup1\n      0xa0\n      add\n      0x40\n      mstore\n      dup1\n        /* \"contracts/UniswapV3/addLiquidityV3.sol\":1415:1419  path */\n      dup8\n      dup8\n        /* \"contracts/UniswapV3/addLiquidityV3.sol\":1365:1574  ISwapRouter.ExactInputParams({... */\n      dup1\n      dup1\n      0x1f\n      add\n      0x20\n      dup1\n      swap2\n      div\n      mul\n      0x20\n      add\n      mload(0x40)\n      swap1\n      dup2\n      add\n      0x40\n      mstore\n      dup1\n      swap4\n      swap3\n      swap2\n      swap1\n      dup2\n      dup2\n      mstore\n      0x20\n      add\n      dup4\n      dup4\n      dup1\n      dup3\n      dup5\n      calldatacopy\n      0x00\n      dup2\n      dup5\n      add\n      mstore\n      not(0x1f)\n      0x1f\n      dup3\n      add\n      and\n      swap1\n      pop\n      dup1\n      dup4\n      add\n      swap3\n      pop\n      pop\n      pop\n      pop\n      pop\n      pop\n      pop\n      dup2\n      mstore\n      0x20\n      add\n        /* \"contracts/UniswapV3/addLiquidityV3.sol\":1445:1455  msg.sender */\n      caller\n        /* \"contracts/UniswapV3/addLiquidityV3.sol\":1365:1574  ISwapRouter.ExactInputParams({... */\n      0xffffffffffffffffffffffffffffffffffffffff\n      and\n      dup2\n      mstore\n      0x20\n      add\n        /* \"contracts/UniswapV3/addLiquidityV3.sol\":1480:1495  block.timestamp */\n      timestamp\n        /* \"contracts/UniswapV3/addLiquidityV3.sol\":1365:1574  ISwapRouter.ExactInputParams({... */\n      dup2\n      mstore\n      0x20\n      add\n        /* \"contracts/UniswapV3/addLiquidityV3.sol\":1520:1528  amountIn */\n      dup5\n        /* \"contracts/UniswapV3/addLiquidityV3.sol\":1365:1574  ISwapRouter.ExactInputParams({... */\n      dup2\n      mstore\n      0x20\n      add\n        /* \"contracts/UniswapV3/addLiquidityV3.sol\":1561:1562  0 */\n      0x00\n        /* \"contracts/UniswapV3/addLiquidityV3.sol\":1365:1574  ISwapRouter.ExactInputParams({... */\n      dup2\n      mstore\n      pop\n        /* \"contracts/UniswapV3/addLiquidityV3.sol\":1320:1574  ISwapRouter.ExactInputParams memory params = ISwapRouter.ExactInputParams({... */\n      swap1\n      pop\n        /* \"contracts/UniswapV3/addLiquidityV3.sol\":150:192  0xE592427A0AEce92De3Edee1F18E0157C05861564 */\n      0xe592427a0aece92de3edee1f18e0157c05861564\n        /* \"contracts/UniswapV3/addLiquidityV3.sol\":1597:1614  router.exactInput */\n      0xffffffffffffffffffffffffffffffffffffffff\n      and\n      0xc04b8d59\n        /* \"contracts/UniswapV3/addLiquidityV3.sol\":1615:1621  params */\n      dup3\n        /* \"contracts/UniswapV3/addLiquidityV3.sol\":1597:1622  router.exactInput(params) */\n      mload(0x40)\n      dup3\n      0xffffffff\n      and\n      0xe0\n      shl\n      dup2\n      mstore\n      0x04\n      add\n      tag_43\n      swap2\n      swap1\n      tag_44\n      jump\t// in\n    tag_43:\n      0x20\n      mload(0x40)\n      dup1\n      dup4\n      sub\n      dup2\n      0x00\n      dup8\n      gas\n      call\n      iszero\n      dup1\n      iszero\n      tag_46\n      jumpi\n      returndatasize\n      0x00\n      dup1\n      returndatacopy\n      revert(0x00, returndatasize)\n    tag_46:\n      pop\n      pop\n      pop\n      pop\n      mload(0x40)\n      returndatasize\n      not(0x1f)\n      0x1f\n      dup3\n      add\n      and\n      dup3\n      add\n      dup1\n      0x40\n      mstore\n      pop\n      dup2\n      add\n      swap1\n      tag_47\n      swap2\n      swap1\n      tag_33\n      jump\t// in\n    tag_47:\n        /* \"contracts/UniswapV3/addLiquidityV3.sol\":1585:1622  amountOut = router.exactInput(params) */\n      swap2\n      pop\n        /* \"contracts/UniswapV3/addLiquidityV3.sol\":1170:1630  {... */\n      pop\n        /* \"contracts/UniswapV3/addLiquidityV3.sol\":1017:1630  function swapExactInputMultiHop(... */\n      swap5\n      swap4\n      pop\n      pop\n      pop\n      pop\n      jump\t// out\n        /* \"#utility.yul\":88:205   */\n    tag_49:\n        /* \"#utility.yul\":197:198   */\n      0x00\n        /* \"#utility.yul\":194:195   */\n      dup1\n        /* \"#utility.yul\":187:199   */\n      revert\n        /* \"#utility.yul\":211:328   */\n    tag_50:\n        /* \"#utility.yul\":320:321   */\n      0x00\n        /* \"#utility.yul\":317:318   */\n      dup1\n        /* \"#utility.yul\":310:322   */\n      revert\n        /* \"#utility.yul\":334:460   */\n    tag_51:\n        /* \"#utility.yul\":371:378   */\n      0x00\n        /* \"#utility.yul\":411:453   */\n      0xffffffffffffffffffffffffffffffffffffffff\n        /* \"#utility.yul\":404:409   */\n      dup3\n        /* \"#utility.yul\":400:454   */\n      and\n        /* \"#utility.yul\":389:454   */\n      swap1\n      pop\n        /* \"#utility.yul\":334:460   */\n      swap2\n      swap1\n      pop\n      jump\t// out\n        /* \"#utility.yul\":466:562   */\n    tag_52:\n        /* \"#utility.yul\":503:510   */\n      0x00\n        /* \"#utility.yul\":532:556   */\n      tag_88\n        /* \"#utility.yul\":550:555   */\n      dup3\n        /* \"#utility.yul\":532:556   */\n      tag_51\n      jump\t// in\n    tag_88:\n        /* \"#utility.yul\":521:556   */\n      swap1\n      pop\n        /* \"#utility.yul\":466:562   */\n      swap2\n      swap1\n      pop\n      jump\t// out\n        /* \"#utility.yul\":568:690   */\n    tag_53:\n        /* \"#utility.yul\":641:665   */\n      tag_90\n        /* \"#utility.yul\":659:664   */\n      dup2\n        /* \"#utility.yul\":641:665   */\n      tag_52\n      jump\t// in\n    tag_90:\n        /* \"#utility.yul\":634:639   */\n      dup2\n        /* \"#utility.yul\":631:666   */\n      eq\n        /* \"#utility.yul\":621:684   */\n      tag_91\n      jumpi\n        /* \"#utility.yul\":680:681   */\n      0x00\n        /* \"#utility.yul\":677:678   */\n      dup1\n        /* \"#utility.yul\":670:682   */\n      revert\n        /* \"#utility.yul\":621:684   */\n    tag_91:\n        /* \"#utility.yul\":568:690   */\n      pop\n      jump\t// out\n        /* \"#utility.yul\":696:835   */\n    tag_54:\n        /* \"#utility.yul\":742:747   */\n      0x00\n        /* \"#utility.yul\":780:786   */\n      dup2\n        /* \"#utility.yul\":767:787   */\n      calldataload\n        /* \"#utility.yul\":758:787   */\n      swap1\n      pop\n        /* \"#utility.yul\":796:829   */\n      tag_93\n        /* \"#utility.yul\":823:828   */\n      dup2\n        /* \"#utility.yul\":796:829   */\n      tag_53\n      jump\t// in\n    tag_93:\n        /* \"#utility.yul\":696:835   */\n      swap3\n      swap2\n      pop\n      pop\n      jump\t// out\n        /* \"#utility.yul\":841:932   */\n    tag_55:\n        /* \"#utility.yul\":877:884   */\n      0x00\n        /* \"#utility.yul\":917:925   */\n      0xffffff\n        /* \"#utility.yul\":910:915   */\n      dup3\n        /* \"#utility.yul\":906:926   */\n      and\n        /* \"#utility.yul\":895:926   */\n      swap1\n      pop\n        /* \"#utility.yul\":841:932   */\n      swap2\n      swap1\n      pop\n      jump\t// out\n        /* \"#utility.yul\":938:1058   */\n    tag_56:\n        /* \"#utility.yul\":1010:1033   */\n      tag_96\n        /* \"#utility.yul\":1027:1032   */\n      dup2\n        /* \"#utility.yul\":1010:1033   */\n      tag_55\n      jump\t// in\n    tag_96:\n        /* \"#utility.yul\":1003:1008   */\n      dup2\n        /* \"#utility.yul\":1000:1034   */\n      eq\n        /* \"#utility.yul\":990:1052   */\n      tag_97\n      jumpi\n        /* \"#utility.yul\":1048:1049   */\n      0x00\n        /* \"#utility.yul\":1045:1046   */\n      dup1\n        /* \"#utility.yul\":1038:1050   */\n      revert\n        /* \"#utility.yul\":990:1052   */\n    tag_97:\n        /* \"#utility.yul\":938:1058   */\n      pop\n      jump\t// out\n        /* \"#utility.yul\":1064:1201   */\n    tag_57:\n        /* \"#utility.yul\":1109:1114   */\n      0x00\n        /* \"#utility.yul\":1147:1153   */\n      dup2\n        /* \"#utility.yul\":1134:1154   */\n      calldataload\n        /* \"#utility.yul\":1125:1154   */\n      swap1\n      pop\n        /* \"#utility.yul\":1163:1195   */\n      tag_99\n        /* \"#utility.yul\":1189:1194   */\n      dup2\n        /* \"#utility.yul\":1163:1195   */\n      tag_56\n      jump\t// in\n    tag_99:\n        /* \"#utility.yul\":1064:1201   */\n      swap3\n      swap2\n      pop\n      pop\n      jump\t// out\n        /* \"#utility.yul\":1207:1284   */\n    tag_58:\n        /* \"#utility.yul\":1244:1251   */\n      0x00\n        /* \"#utility.yul\":1273:1278   */\n      dup2\n        /* \"#utility.yul\":1262:1278   */\n      swap1\n      pop\n        /* \"#utility.yul\":1207:1284   */\n      swap2\n      swap1\n      pop\n      jump\t// out\n        /* \"#utility.yul\":1290:1412   */\n    tag_59:\n        /* \"#utility.yul\":1363:1387   */\n      tag_102\n        /* \"#utility.yul\":1381:1386   */\n      dup2\n        /* \"#utility.yul\":1363:1387   */\n      tag_58\n      jump\t// in\n    tag_102:\n        /* \"#utility.yul\":1356:1361   */\n      dup2\n        /* \"#utility.yul\":1353:1388   */\n      eq\n        /* \"#utility.yul\":1343:1406   */\n      tag_103\n      jumpi\n        /* \"#utility.yul\":1402:1403   */\n      0x00\n        /* \"#utility.yul\":1399:1400   */\n      dup1\n        /* \"#utility.yul\":1392:1404   */\n      revert\n        /* \"#utility.yul\":1343:1406   */\n    tag_103:\n        /* \"#utility.yul\":1290:1412   */\n      pop\n      jump\t// out\n        /* \"#utility.yul\":1418:1557   */\n    tag_60:\n        /* \"#utility.yul\":1464:1469   */\n      0x00\n        /* \"#utility.yul\":1502:1508   */\n      dup2\n        /* \"#utility.yul\":1489:1509   */\n      calldataload\n        /* \"#utility.yul\":1480:1509   */\n      swap1\n      pop\n        /* \"#utility.yul\":1518:1551   */\n      tag_105\n        /* \"#utility.yul\":1545:1550   */\n      dup2\n        /* \"#utility.yul\":1518:1551   */\n      tag_59\n      jump\t// in\n    tag_105:\n        /* \"#utility.yul\":1418:1557   */\n      swap3\n      swap2\n      pop\n      pop\n      jump\t// out\n        /* \"#utility.yul\":1563:2326   */\n    tag_7:\n        /* \"#utility.yul\":1648:1654   */\n      0x00\n        /* \"#utility.yul\":1656:1662   */\n      dup1\n        /* \"#utility.yul\":1664:1670   */\n      0x00\n        /* \"#utility.yul\":1672:1678   */\n      dup1\n        /* \"#utility.yul\":1721:1724   */\n      0x80\n        /* \"#utility.yul\":1709:1718   */\n      dup6\n        /* \"#utility.yul\":1700:1707   */\n      dup8\n        /* \"#utility.yul\":1696:1719   */\n      sub\n        /* \"#utility.yul\":1692:1725   */\n      slt\n        /* \"#utility.yul\":1689:1809   */\n      iszero\n      tag_107\n      jumpi\n        /* \"#utility.yul\":1728:1807   */\n      tag_108\n      tag_49\n      jump\t// in\n    tag_108:\n        /* \"#utility.yul\":1689:1809   */\n    tag_107:\n        /* \"#utility.yul\":1848:1849   */\n      0x00\n        /* \"#utility.yul\":1873:1926   */\n      tag_109\n        /* \"#utility.yul\":1918:1925   */\n      dup8\n        /* \"#utility.yul\":1909:1915   */\n      dup3\n        /* \"#utility.yul\":1898:1907   */\n      dup9\n        /* \"#utility.yul\":1894:1916   */\n      add\n        /* \"#utility.yul\":1873:1926   */\n      tag_54\n      jump\t// in\n    tag_109:\n        /* \"#utility.yul\":1863:1926   */\n      swap5\n      pop\n        /* \"#utility.yul\":1819:1936   */\n      pop\n        /* \"#utility.yul\":1975:1977   */\n      0x20\n        /* \"#utility.yul\":2001:2054   */\n      tag_110\n        /* \"#utility.yul\":2046:2053   */\n      dup8\n        /* \"#utility.yul\":2037:2043   */\n      dup3\n        /* \"#utility.yul\":2026:2035   */\n      dup9\n        /* \"#utility.yul\":2022:2044   */\n      add\n        /* \"#utility.yul\":2001:2054   */\n      tag_54\n      jump\t// in\n    tag_110:\n        /* \"#utility.yul\":1991:2054   */\n      swap4\n      pop\n        /* \"#utility.yul\":1946:2064   */\n      pop\n        /* \"#utility.yul\":2103:2105   */\n      0x40\n        /* \"#utility.yul\":2129:2181   */\n      tag_111\n        /* \"#utility.yul\":2173:2180   */\n      dup8\n        /* \"#utility.yul\":2164:2170   */\n      dup3\n        /* \"#utility.yul\":2153:2162   */\n      dup9\n        /* \"#utility.yul\":2149:2171   */\n      add\n        /* \"#utility.yul\":2129:2181   */\n      tag_57\n      jump\t// in\n    tag_111:\n        /* \"#utility.yul\":2119:2181   */\n      swap3\n      pop\n        /* \"#utility.yul\":2074:2191   */\n      pop\n        /* \"#utility.yul\":2230:2232   */\n      0x60\n        /* \"#utility.yul\":2256:2309   */\n      tag_112\n        /* \"#utility.yul\":2301:2308   */\n      dup8\n        /* \"#utility.yul\":2292:2298   */\n      dup3\n        /* \"#utility.yul\":2281:2290   */\n      dup9\n        /* \"#utility.yul\":2277:2299   */\n      add\n        /* \"#utility.yul\":2256:2309   */\n      tag_60\n      jump\t// in\n    tag_112:\n        /* \"#utility.yul\":2246:2309   */\n      swap2\n      pop\n        /* \"#utility.yul\":2201:2319   */\n      pop\n        /* \"#utility.yul\":1563:2326   */\n      swap3\n      swap6\n      swap2\n      swap5\n      pop\n      swap3\n      pop\n      jump\t// out\n        /* \"#utility.yul\":2332:2450   */\n    tag_61:\n        /* \"#utility.yul\":2419:2443   */\n      tag_114\n        /* \"#utility.yul\":2437:2442   */\n      dup2\n        /* \"#utility.yul\":2419:2443   */\n      tag_58\n      jump\t// in\n    tag_114:\n        /* \"#utility.yul\":2414:2417   */\n      dup3\n        /* \"#utility.yul\":2407:2444   */\n      mstore\n        /* \"#utility.yul\":2332:2450   */\n      pop\n      pop\n      jump\t// out\n        /* \"#utility.yul\":2456:2678   */\n    tag_10:\n        /* \"#utility.yul\":2549:2553   */\n      0x00\n        /* \"#utility.yul\":2587:2589   */\n      0x20\n        /* \"#utility.yul\":2576:2585   */\n      dup3\n        /* \"#utility.yul\":2572:2590   */\n      add\n        /* \"#utility.yul\":2564:2590   */\n      swap1\n      pop\n        /* \"#utility.yul\":2600:2671   */\n      tag_116\n        /* \"#utility.yul\":2668:2669   */\n      0x00\n        /* \"#utility.yul\":2657:2666   */\n      dup4\n        /* \"#utility.yul\":2653:2670   */\n      add\n        /* \"#utility.yul\":2644:2650   */\n      dup5\n        /* \"#utility.yul\":2600:2671   */\n      tag_61\n      jump\t// in\n    tag_116:\n        /* \"#utility.yul\":2456:2678   */\n      swap3\n      swap2\n      pop\n      pop\n      jump\t// out\n        /* \"#utility.yul\":2684:2801   */\n    tag_62:\n        /* \"#utility.yul\":2793:2794   */\n      0x00\n        /* \"#utility.yul\":2790:2791   */\n      dup1\n        /* \"#utility.yul\":2783:2795   */\n      revert\n        /* \"#utility.yul\":2807:2924   */\n    tag_63:\n        /* \"#utility.yul\":2916:2917   */\n      0x00\n        /* \"#utility.yul\":2913:2914   */\n      dup1\n        /* \"#utility.yul\":2906:2918   */\n      revert\n        /* \"#utility.yul\":2930:3047   */\n    tag_64:\n        /* \"#utility.yul\":3039:3040   */\n      0x00\n        /* \"#utility.yul\":3036:3037   */\n      dup1\n        /* \"#utility.yul\":3029:3041   */\n      revert\n        /* \"#utility.yul\":3066:3618   */\n    tag_65:\n        /* \"#utility.yul\":3123:3131   */\n      0x00\n        /* \"#utility.yul\":3133:3139   */\n      dup1\n        /* \"#utility.yul\":3183:3186   */\n      dup4\n        /* \"#utility.yul\":3176:3180   */\n      0x1f\n        /* \"#utility.yul\":3168:3174   */\n      dup5\n        /* \"#utility.yul\":3164:3181   */\n      add\n        /* \"#utility.yul\":3160:3187   */\n      slt\n        /* \"#utility.yul\":3150:3272   */\n      tag_121\n      jumpi\n        /* \"#utility.yul\":3191:3270   */\n      tag_122\n      tag_62\n      jump\t// in\n    tag_122:\n        /* \"#utility.yul\":3150:3272   */\n    tag_121:\n        /* \"#utility.yul\":3304:3310   */\n      dup3\n        /* \"#utility.yul\":3291:3311   */\n      calldataload\n        /* \"#utility.yul\":3281:3311   */\n      swap1\n      pop\n        /* \"#utility.yul\":3334:3352   */\n      0xffffffffffffffff\n        /* \"#utility.yul\":3326:3332   */\n      dup2\n        /* \"#utility.yul\":3323:3353   */\n      gt\n        /* \"#utility.yul\":3320:3437   */\n      iszero\n      tag_123\n      jumpi\n        /* \"#utility.yul\":3356:3435   */\n      tag_124\n      tag_63\n      jump\t// in\n    tag_124:\n        /* \"#utility.yul\":3320:3437   */\n    tag_123:\n        /* \"#utility.yul\":3470:3474   */\n      0x20\n        /* \"#utility.yul\":3462:3468   */\n      dup4\n        /* \"#utility.yul\":3458:3475   */\n      add\n        /* \"#utility.yul\":3446:3475   */\n      swap2\n      pop\n        /* \"#utility.yul\":3524:3527   */\n      dup4\n        /* \"#utility.yul\":3516:3520   */\n      0x01\n        /* \"#utility.yul\":3508:3514   */\n      dup3\n        /* \"#utility.yul\":3504:3521   */\n      mul\n        /* \"#utility.yul\":3494:3502   */\n      dup4\n        /* \"#utility.yul\":3490:3522   */\n      add\n        /* \"#utility.yul\":3487:3528   */\n      gt\n        /* \"#utility.yul\":3484:3612   */\n      iszero\n      tag_125\n      jumpi\n        /* \"#utility.yul\":3531:3610   */\n      tag_126\n      tag_64\n      jump\t// in\n    tag_126:\n        /* \"#utility.yul\":3484:3612   */\n    tag_125:\n        /* \"#utility.yul\":3066:3618   */\n      swap3\n      pop\n      swap3\n      swap1\n      pop\n      jump\t// out\n        /* \"#utility.yul\":3624:4441   */\n    tag_13:\n        /* \"#utility.yul\":3712:3718   */\n      0x00\n        /* \"#utility.yul\":3720:3726   */\n      dup1\n        /* \"#utility.yul\":3728:3734   */\n      0x00\n        /* \"#utility.yul\":3736:3742   */\n      dup1\n        /* \"#utility.yul\":3785:3787   */\n      0x60\n        /* \"#utility.yul\":3773:3782   */\n      dup6\n        /* \"#utility.yul\":3764:3771   */\n      dup8\n        /* \"#utility.yul\":3760:3783   */\n      sub\n        /* \"#utility.yul\":3756:3788   */\n      slt\n        /* \"#utility.yul\":3753:3872   */\n      iszero\n      tag_128\n      jumpi\n        /* \"#utility.yul\":3791:3870   */\n      tag_129\n      tag_49\n      jump\t// in\n    tag_129:\n        /* \"#utility.yul\":3753:3872   */\n    tag_128:\n        /* \"#utility.yul\":3939:3940   */\n      0x00\n        /* \"#utility.yul\":3928:3937   */\n      dup6\n        /* \"#utility.yul\":3924:3941   */\n      add\n        /* \"#utility.yul\":3911:3942   */\n      calldataload\n        /* \"#utility.yul\":3969:3987   */\n      0xffffffffffffffff\n        /* \"#utility.yul\":3961:3967   */\n      dup2\n        /* \"#utility.yul\":3958:3988   */\n      gt\n        /* \"#utility.yul\":3955:4072   */\n      iszero\n      tag_130\n      jumpi\n        /* \"#utility.yul\":3991:4070   */\n      tag_131\n      tag_50\n      jump\t// in\n    tag_131:\n        /* \"#utility.yul\":3955:4072   */\n    tag_130:\n        /* \"#utility.yul\":4104:4168   */\n      tag_132\n        /* \"#utility.yul\":4160:4167   */\n      dup8\n        /* \"#utility.yul\":4151:4157   */\n      dup3\n        /* \"#utility.yul\":4140:4149   */\n      dup9\n        /* \"#utility.yul\":4136:4158   */\n      add\n        /* \"#utility.yul\":4104:4168   */\n      tag_65\n      jump\t// in\n    tag_132:\n        /* \"#utility.yul\":4086:4168   */\n      swap5\n      pop\n      swap5\n      pop\n        /* \"#utility.yul\":3882:4178   */\n      pop\n        /* \"#utility.yul\":4217:4219   */\n      0x20\n        /* \"#utility.yul\":4243:4296   */\n      tag_133\n        /* \"#utility.yul\":4288:4295   */\n      dup8\n        /* \"#utility.yul\":4279:4285   */\n      dup3\n        /* \"#utility.yul\":4268:4277   */\n      dup9\n        /* \"#utility.yul\":4264:4286   */\n      add\n        /* \"#utility.yul\":4243:4296   */\n      tag_54\n      jump\t// in\n    tag_133:\n        /* \"#utility.yul\":4233:4296   */\n      swap3\n      pop\n        /* \"#utility.yul\":4188:4306   */\n      pop\n        /* \"#utility.yul\":4345:4347   */\n      0x40\n        /* \"#utility.yul\":4371:4424   */\n      tag_134\n        /* \"#utility.yul\":4416:4423   */\n      dup8\n        /* \"#utility.yul\":4407:4413   */\n      dup3\n        /* \"#utility.yul\":4396:4405   */\n      dup9\n        /* \"#utility.yul\":4392:4414   */\n      add\n        /* \"#utility.yul\":4371:4424   */\n      tag_60\n      jump\t// in\n    tag_134:\n        /* \"#utility.yul\":4361:4424   */\n      swap2\n      pop\n        /* \"#utility.yul\":4316:4434   */\n      pop\n        /* \"#utility.yul\":3624:4441   */\n      swap3\n      swap6\n      swap2\n      swap5\n      pop\n      swap3\n      pop\n      jump\t// out\n        /* \"#utility.yul\":4447:4565   */\n    tag_66:\n        /* \"#utility.yul\":4534:4558   */\n      tag_136\n        /* \"#utility.yul\":4552:4557   */\n      dup2\n        /* \"#utility.yul\":4534:4558   */\n      tag_52\n      jump\t// in\n    tag_136:\n        /* \"#utility.yul\":4529:4532   */\n      dup3\n        /* \"#utility.yul\":4522:4559   */\n      mstore\n        /* \"#utility.yul\":4447:4565   */\n      pop\n      pop\n      jump\t// out\n        /* \"#utility.yul\":4571:5013   */\n    tag_18:\n        /* \"#utility.yul\":4720:4724   */\n      0x00\n        /* \"#utility.yul\":4758:4760   */\n      0x60\n        /* \"#utility.yul\":4747:4756   */\n      dup3\n        /* \"#utility.yul\":4743:4761   */\n      add\n        /* \"#utility.yul\":4735:4761   */\n      swap1\n      pop\n        /* \"#utility.yul\":4771:4842   */\n      tag_138\n        /* \"#utility.yul\":4839:4840   */\n      0x00\n        /* \"#utility.yul\":4828:4837   */\n      dup4\n        /* \"#utility.yul\":4824:4841   */\n      add\n        /* \"#utility.yul\":4815:4821   */\n      dup7\n        /* \"#utility.yul\":4771:4842   */\n      tag_66\n      jump\t// in\n    tag_138:\n        /* \"#utility.yul\":4852:4924   */\n      tag_139\n        /* \"#utility.yul\":4920:4922   */\n      0x20\n        /* \"#utility.yul\":4909:4918   */\n      dup4\n        /* \"#utility.yul\":4905:4923   */\n      add\n        /* \"#utility.yul\":4896:4902   */\n      dup6\n        /* \"#utility.yul\":4852:4924   */\n      tag_66\n      jump\t// in\n    tag_139:\n        /* \"#utility.yul\":4934:5006   */\n      tag_140\n        /* \"#utility.yul\":5002:5004   */\n      0x40\n        /* \"#utility.yul\":4991:5000   */\n      dup4\n        /* \"#utility.yul\":4987:5005   */\n      add\n        /* \"#utility.yul\":4978:4984   */\n      dup5\n        /* \"#utility.yul\":4934:5006   */\n      tag_61\n      jump\t// in\n    tag_140:\n        /* \"#utility.yul\":4571:5013   */\n      swap5\n      swap4\n      pop\n      pop\n      pop\n      pop\n      jump\t// out\n        /* \"#utility.yul\":5019:5109   */\n    tag_67:\n        /* \"#utility.yul\":5053:5060   */\n      0x00\n        /* \"#utility.yul\":5096:5101   */\n      dup2\n        /* \"#utility.yul\":5089:5102   */\n      iszero\n        /* \"#utility.yul\":5082:5103   */\n      iszero\n        /* \"#utility.yul\":5071:5103   */\n      swap1\n      pop\n        /* \"#utility.yul\":5019:5109   */\n      swap2\n      swap1\n      pop\n      jump\t// out\n        /* \"#utility.yul\":5115:5231   */\n    tag_68:\n        /* \"#utility.yul\":5185:5206   */\n      tag_143\n        /* \"#utility.yul\":5200:5205   */\n      dup2\n        /* \"#utility.yul\":5185:5206   */\n      tag_67\n      jump\t// in\n    tag_143:\n        /* \"#utility.yul\":5178:5183   */\n      dup2\n        /* \"#utility.yul\":5175:5207   */\n      eq\n        /* \"#utility.yul\":5165:5225   */\n      tag_144\n      jumpi\n        /* \"#utility.yul\":5221:5222   */\n      0x00\n        /* \"#utility.yul\":5218:5219   */\n      dup1\n        /* \"#utility.yul\":5211:5223   */\n      revert\n        /* \"#utility.yul\":5165:5225   */\n    tag_144:\n        /* \"#utility.yul\":5115:5231   */\n      pop\n      jump\t// out\n        /* \"#utility.yul\":5237:5374   */\n    tag_69:\n        /* \"#utility.yul\":5291:5296   */\n      0x00\n        /* \"#utility.yul\":5322:5328   */\n      dup2\n        /* \"#utility.yul\":5316:5329   */\n      mload\n        /* \"#utility.yul\":5307:5329   */\n      swap1\n      pop\n        /* \"#utility.yul\":5338:5368   */\n      tag_146\n        /* \"#utility.yul\":5362:5367   */\n      dup2\n        /* \"#utility.yul\":5338:5368   */\n      tag_68\n      jump\t// in\n    tag_146:\n        /* \"#utility.yul\":5237:5374   */\n      swap3\n      swap2\n      pop\n      pop\n      jump\t// out\n        /* \"#utility.yul\":5380:5725   */\n    tag_22:\n        /* \"#utility.yul\":5447:5453   */\n      0x00\n        /* \"#utility.yul\":5496:5498   */\n      0x20\n        /* \"#utility.yul\":5484:5493   */\n      dup3\n        /* \"#utility.yul\":5475:5482   */\n      dup5\n        /* \"#utility.yul\":5471:5494   */\n      sub\n        /* \"#utility.yul\":5467:5499   */\n      slt\n        /* \"#utility.yul\":5464:5583   */\n      iszero\n      tag_148\n      jumpi\n        /* \"#utility.yul\":5502:5581   */\n      tag_149\n      tag_49\n      jump\t// in\n    tag_149:\n        /* \"#utility.yul\":5464:5583   */\n    tag_148:\n        /* \"#utility.yul\":5622:5623   */\n      0x00\n        /* \"#utility.yul\":5647:5708   */\n      tag_150\n        /* \"#utility.yul\":5700:5707   */\n      dup5\n        /* \"#utility.yul\":5691:5697   */\n      dup3\n        /* \"#utility.yul\":5680:5689   */\n      dup6\n        /* \"#utility.yul\":5676:5698   */\n      add\n        /* \"#utility.yul\":5647:5708   */\n      tag_69\n      jump\t// in\n    tag_150:\n        /* \"#utility.yul\":5637:5708   */\n      swap2\n      pop\n        /* \"#utility.yul\":5593:5718   */\n      pop\n        /* \"#utility.yul\":5380:5725   */\n      swap3\n      swap2\n      pop\n      pop\n      jump\t// out\n        /* \"#utility.yul\":5731:6063   */\n    tag_24:\n        /* \"#utility.yul\":5852:5856   */\n      0x00\n        /* \"#utility.yul\":5890:5892   */\n      0x40\n        /* \"#utility.yul\":5879:5888   */\n      dup3\n        /* \"#utility.yul\":5875:5893   */\n      add\n        /* \"#utility.yul\":5867:5893   */\n      swap1\n      pop\n        /* \"#utility.yul\":5903:5974   */\n      tag_152\n        /* \"#utility.yul\":5971:5972   */\n      0x00\n        /* \"#utility.yul\":5960:5969   */\n      dup4\n        /* \"#utility.yul\":5956:5973   */\n      add\n        /* \"#utility.yul\":5947:5953   */\n      dup6\n        /* \"#utility.yul\":5903:5974   */\n      tag_66\n      jump\t// in\n    tag_152:\n        /* \"#utility.yul\":5984:6056   */\n      tag_153\n        /* \"#utility.yul\":6052:6054   */\n      0x20\n        /* \"#utility.yul\":6041:6050   */\n      dup4\n        /* \"#utility.yul\":6037:6055   */\n      add\n        /* \"#utility.yul\":6028:6034   */\n      dup5\n        /* \"#utility.yul\":5984:6056   */\n      tag_61\n      jump\t// in\n    tag_153:\n        /* \"#utility.yul\":5731:6063   */\n      swap4\n      swap3\n      pop\n      pop\n      pop\n      jump\t// out\n        /* \"#utility.yul\":6069:6177   */\n    tag_70:\n        /* \"#utility.yul\":6146:6170   */\n      tag_155\n        /* \"#utility.yul\":6164:6169   */\n      dup2\n        /* \"#utility.yul\":6146:6170   */\n      tag_52\n      jump\t// in\n    tag_155:\n        /* \"#utility.yul\":6141:6144   */\n      dup3\n        /* \"#utility.yul\":6134:6171   */\n      mstore\n        /* \"#utility.yul\":6069:6177   */\n      pop\n      pop\n      jump\t// out\n        /* \"#utility.yul\":6183:6288   */\n    tag_71:\n        /* \"#utility.yul\":6258:6281   */\n      tag_157\n        /* \"#utility.yul\":6275:6280   */\n      dup2\n        /* \"#utility.yul\":6258:6281   */\n      tag_55\n      jump\t// in\n    tag_157:\n        /* \"#utility.yul\":6253:6256   */\n      dup3\n        /* \"#utility.yul\":6246:6282   */\n      mstore\n        /* \"#utility.yul\":6183:6288   */\n      pop\n      pop\n      jump\t// out\n        /* \"#utility.yul\":6294:6402   */\n    tag_72:\n        /* \"#utility.yul\":6371:6395   */\n      tag_159\n        /* \"#utility.yul\":6389:6394   */\n      dup2\n        /* \"#utility.yul\":6371:6395   */\n      tag_58\n      jump\t// in\n    tag_159:\n        /* \"#utility.yul\":6366:6369   */\n      dup3\n        /* \"#utility.yul\":6359:6396   */\n      mstore\n        /* \"#utility.yul\":6294:6402   */\n      pop\n      pop\n      jump\t// out\n        /* \"#utility.yul\":6408:6516   */\n    tag_73:\n        /* \"#utility.yul\":6485:6509   */\n      tag_161\n        /* \"#utility.yul\":6503:6508   */\n      dup2\n        /* \"#utility.yul\":6485:6509   */\n      tag_51\n      jump\t// in\n    tag_161:\n        /* \"#utility.yul\":6480:6483   */\n      dup3\n        /* \"#utility.yul\":6473:6510   */\n      mstore\n        /* \"#utility.yul\":6408:6516   */\n      pop\n      pop\n      jump\t// out\n        /* \"#utility.yul\":6616:8239   */\n    tag_74:\n        /* \"#utility.yul\":6791:6797   */\n      0x0100\n        /* \"#utility.yul\":6786:6789   */\n      dup3\n        /* \"#utility.yul\":6782:6798   */\n      add\n        /* \"#utility.yul\":6883:6887   */\n      0x00\n        /* \"#utility.yul\":6876:6881   */\n      dup3\n        /* \"#utility.yul\":6872:6888   */\n      add\n        /* \"#utility.yul\":6866:6889   */\n      mload\n        /* \"#utility.yul\":6902:6965   */\n      tag_163\n        /* \"#utility.yul\":6959:6963   */\n      0x00\n        /* \"#utility.yul\":6954:6957   */\n      dup6\n        /* \"#utility.yul\":6950:6964   */\n      add\n        /* \"#utility.yul\":6936:6948   */\n      dup3\n        /* \"#utility.yul\":6902:6965   */\n      tag_70\n      jump\t// in\n    tag_163:\n        /* \"#utility.yul\":6808:6975   */\n      pop\n        /* \"#utility.yul\":7061:7065   */\n      0x20\n        /* \"#utility.yul\":7054:7059   */\n      dup3\n        /* \"#utility.yul\":7050:7066   */\n      add\n        /* \"#utility.yul\":7044:7067   */\n      mload\n        /* \"#utility.yul\":7080:7143   */\n      tag_164\n        /* \"#utility.yul\":7137:7141   */\n      0x20\n        /* \"#utility.yul\":7132:7135   */\n      dup6\n        /* \"#utility.yul\":7128:7142   */\n      add\n        /* \"#utility.yul\":7114:7126   */\n      dup3\n        /* \"#utility.yul\":7080:7143   */\n      tag_70\n      jump\t// in\n    tag_164:\n        /* \"#utility.yul\":6985:7153   */\n      pop\n        /* \"#utility.yul\":7234:7238   */\n      0x40\n        /* \"#utility.yul\":7227:7232   */\n      dup3\n        /* \"#utility.yul\":7223:7239   */\n      add\n        /* \"#utility.yul\":7217:7240   */\n      mload\n        /* \"#utility.yul\":7253:7314   */\n      tag_165\n        /* \"#utility.yul\":7308:7312   */\n      0x40\n        /* \"#utility.yul\":7303:7306   */\n      dup6\n        /* \"#utility.yul\":7299:7313   */\n      add\n        /* \"#utility.yul\":7285:7297   */\n      dup3\n        /* \"#utility.yul\":7253:7314   */\n      tag_71\n      jump\t// in\n    tag_165:\n        /* \"#utility.yul\":7163:7324   */\n      pop\n        /* \"#utility.yul\":7411:7415   */\n      0x60\n        /* \"#utility.yul\":7404:7409   */\n      dup3\n        /* \"#utility.yul\":7400:7416   */\n      add\n        /* \"#utility.yul\":7394:7417   */\n      mload\n        /* \"#utility.yul\":7430:7493   */\n      tag_166\n        /* \"#utility.yul\":7487:7491   */\n      0x60\n        /* \"#utility.yul\":7482:7485   */\n      dup6\n        /* \"#utility.yul\":7478:7492   */\n      add\n        /* \"#utility.yul\":7464:7476   */\n      dup3\n        /* \"#utility.yul\":7430:7493   */\n      tag_70\n      jump\t// in\n    tag_166:\n        /* \"#utility.yul\":7334:7503   */\n      pop\n        /* \"#utility.yul\":7589:7593   */\n      0x80\n        /* \"#utility.yul\":7582:7587   */\n      dup3\n        /* \"#utility.yul\":7578:7594   */\n      add\n        /* \"#utility.yul\":7572:7595   */\n      mload\n        /* \"#utility.yul\":7608:7671   */\n      tag_167\n        /* \"#utility.yul\":7665:7669   */\n      0x80\n        /* \"#utility.yul\":7660:7663   */\n      dup6\n        /* \"#utility.yul\":7656:7670   */\n      add\n        /* \"#utility.yul\":7642:7654   */\n      dup3\n        /* \"#utility.yul\":7608:7671   */\n      tag_72\n      jump\t// in\n    tag_167:\n        /* \"#utility.yul\":7513:7681   */\n      pop\n        /* \"#utility.yul\":7767:7771   */\n      0xa0\n        /* \"#utility.yul\":7760:7765   */\n      dup3\n        /* \"#utility.yul\":7756:7772   */\n      add\n        /* \"#utility.yul\":7750:7773   */\n      mload\n        /* \"#utility.yul\":7786:7849   */\n      tag_168\n        /* \"#utility.yul\":7843:7847   */\n      0xa0\n        /* \"#utility.yul\":7838:7841   */\n      dup6\n        /* \"#utility.yul\":7834:7848   */\n      add\n        /* \"#utility.yul\":7820:7832   */\n      dup3\n        /* \"#utility.yul\":7786:7849   */\n      tag_72\n      jump\t// in\n    tag_168:\n        /* \"#utility.yul\":7691:7859   */\n      pop\n        /* \"#utility.yul\":7953:7957   */\n      0xc0\n        /* \"#utility.yul\":7946:7951   */\n      dup3\n        /* \"#utility.yul\":7942:7958   */\n      add\n        /* \"#utility.yul\":7936:7959   */\n      mload\n        /* \"#utility.yul\":7972:8035   */\n      tag_169\n        /* \"#utility.yul\":8029:8033   */\n      0xc0\n        /* \"#utility.yul\":8024:8027   */\n      dup6\n        /* \"#utility.yul\":8020:8034   */\n      add\n        /* \"#utility.yul\":8006:8018   */\n      dup3\n        /* \"#utility.yul\":7972:8035   */\n      tag_72\n      jump\t// in\n    tag_169:\n        /* \"#utility.yul\":7869:8045   */\n      pop\n        /* \"#utility.yul\":8140:8144   */\n      0xe0\n        /* \"#utility.yul\":8133:8138   */\n      dup3\n        /* \"#utility.yul\":8129:8145   */\n      add\n        /* \"#utility.yul\":8123:8146   */\n      mload\n        /* \"#utility.yul\":8159:8222   */\n      tag_170\n        /* \"#utility.yul\":8216:8220   */\n      0xe0\n        /* \"#utility.yul\":8211:8214   */\n      dup6\n        /* \"#utility.yul\":8207:8221   */\n      add\n        /* \"#utility.yul\":8193:8205   */\n      dup3\n        /* \"#utility.yul\":8159:8222   */\n      tag_73\n      jump\t// in\n    tag_170:\n        /* \"#utility.yul\":8055:8232   */\n      pop\n        /* \"#utility.yul\":6760:8239   */\n      pop\n        /* \"#utility.yul\":6616:8239   */\n      pop\n      pop\n      jump\t// out\n        /* \"#utility.yul\":8245:8624   */\n    tag_29:\n        /* \"#utility.yul\":8416:8420   */\n      0x00\n        /* \"#utility.yul\":8454:8457   */\n      0x0100\n        /* \"#utility.yul\":8443:8452   */\n      dup3\n        /* \"#utility.yul\":8439:8458   */\n      add\n        /* \"#utility.yul\":8431:8458   */\n      swap1\n      pop\n        /* \"#utility.yul\":8468:8617   */\n      tag_172\n        /* \"#utility.yul\":8614:8615   */\n      0x00\n        /* \"#utility.yul\":8603:8612   */\n      dup4\n        /* \"#utility.yul\":8599:8616   */\n      add\n        /* \"#utility.yul\":8590:8596   */\n      dup5\n        /* \"#utility.yul\":8468:8617   */\n      tag_74\n      jump\t// in\n    tag_172:\n        /* \"#utility.yul\":8245:8624   */\n      swap3\n      swap2\n      pop\n      pop\n      jump\t// out\n        /* \"#utility.yul\":8630:8773   */\n    tag_75:\n        /* \"#utility.yul\":8687:8692   */\n      0x00\n        /* \"#utility.yul\":8718:8724   */\n      dup2\n        /* \"#utility.yul\":8712:8725   */\n      mload\n        /* \"#utility.yul\":8703:8725   */\n      swap1\n      pop\n        /* \"#utility.yul\":8734:8767   */\n      tag_174\n        /* \"#utility.yul\":8761:8766   */\n      dup2\n        /* \"#utility.yul\":8734:8767   */\n      tag_59\n      jump\t// in\n    tag_174:\n        /* \"#utility.yul\":8630:8773   */\n      swap3\n      swap2\n      pop\n      pop\n      jump\t// out\n        /* \"#utility.yul\":8779:9130   */\n    tag_33:\n        /* \"#utility.yul\":8849:8855   */\n      0x00\n        /* \"#utility.yul\":8898:8900   */\n      0x20\n        /* \"#utility.yul\":8886:8895   */\n      dup3\n        /* \"#utility.yul\":8877:8884   */\n      dup5\n        /* \"#utility.yul\":8873:8896   */\n      sub\n        /* \"#utility.yul\":8869:8901   */\n      slt\n        /* \"#utility.yul\":8866:8985   */\n      iszero\n      tag_176\n      jumpi\n        /* \"#utility.yul\":8904:8983   */\n      tag_177\n      tag_49\n      jump\t// in\n    tag_177:\n        /* \"#utility.yul\":8866:8985   */\n    tag_176:\n        /* \"#utility.yul\":9024:9025   */\n      0x00\n        /* \"#utility.yul\":9049:9113   */\n      tag_178\n        /* \"#utility.yul\":9105:9112   */\n      dup5\n        /* \"#utility.yul\":9096:9102   */\n      dup3\n        /* \"#utility.yul\":9085:9094   */\n      dup6\n        /* \"#utility.yul\":9081:9103   */\n      add\n        /* \"#utility.yul\":9049:9113   */\n      tag_75\n      jump\t// in\n    tag_178:\n        /* \"#utility.yul\":9039:9113   */\n      swap2\n      pop\n        /* \"#utility.yul\":8995:9123   */\n      pop\n        /* \"#utility.yul\":8779:9130   */\n      swap3\n      swap2\n      pop\n      pop\n      jump\t// out\n        /* \"#utility.yul\":9136:9234   */\n    tag_76:\n        /* \"#utility.yul\":9187:9193   */\n      0x00\n        /* \"#utility.yul\":9221:9226   */\n      dup2\n        /* \"#utility.yul\":9215:9227   */\n      mload\n        /* \"#utility.yul\":9205:9227   */\n      swap1\n      pop\n        /* \"#utility.yul\":9136:9234   */\n      swap2\n      swap1\n      pop\n      jump\t// out\n        /* \"#utility.yul\":9240:9398   */\n    tag_77:\n        /* \"#utility.yul\":9313:9324   */\n      0x00\n        /* \"#utility.yul\":9347:9353   */\n      dup3\n        /* \"#utility.yul\":9342:9345   */\n      dup3\n        /* \"#utility.yul\":9335:9354   */\n      mstore\n        /* \"#utility.yul\":9387:9391   */\n      0x20\n        /* \"#utility.yul\":9382:9385   */\n      dup3\n        /* \"#utility.yul\":9378:9392   */\n      add\n        /* \"#utility.yul\":9363:9392   */\n      swap1\n      pop\n        /* \"#utility.yul\":9240:9398   */\n      swap3\n      swap2\n      pop\n      pop\n      jump\t// out\n        /* \"#utility.yul\":9404:9650   */\n    tag_78:\n        /* \"#utility.yul\":9485:9486   */\n      0x00\n        /* \"#utility.yul\":9495:9608   */\n    tag_182:\n        /* \"#utility.yul\":9509:9515   */\n      dup4\n        /* \"#utility.yul\":9506:9507   */\n      dup2\n        /* \"#utility.yul\":9503:9516   */\n      lt\n        /* \"#utility.yul\":9495:9608   */\n      iszero\n      tag_184\n      jumpi\n        /* \"#utility.yul\":9594:9595   */\n      dup1\n        /* \"#utility.yul\":9589:9592   */\n      dup3\n        /* \"#utility.yul\":9585:9596   */\n      add\n        /* \"#utility.yul\":9579:9597   */\n      mload\n        /* \"#utility.yul\":9575:9576   */\n      dup2\n        /* \"#utility.yul\":9570:9573   */\n      dup5\n        /* \"#utility.yul\":9566:9577   */\n      add\n        /* \"#utility.yul\":9559:9598   */\n      mstore\n        /* \"#utility.yul\":9531:9533   */\n      0x20\n        /* \"#utility.yul\":9528:9529   */\n      dup2\n        /* \"#utility.yul\":9524:9534   */\n      add\n        /* \"#utility.yul\":9519:9534   */\n      swap1\n      pop\n        /* \"#utility.yul\":9495:9608   */\n      jump(tag_182)\n    tag_184:\n        /* \"#utility.yul\":9642:9643   */\n      0x00\n        /* \"#utility.yul\":9633:9639   */\n      dup5\n        /* \"#utility.yul\":9628:9631   */\n      dup5\n        /* \"#utility.yul\":9624:9640   */\n      add\n        /* \"#utility.yul\":9617:9644   */\n      mstore\n        /* \"#utility.yul\":9466:9650   */\n      pop\n        /* \"#utility.yul\":9404:9650   */\n      pop\n      pop\n      pop\n      jump\t// out\n        /* \"#utility.yul\":9656:9758   */\n    tag_79:\n        /* \"#utility.yul\":9697:9703   */\n      0x00\n        /* \"#utility.yul\":9748:9750   */\n      0x1f\n        /* \"#utility.yul\":9744:9751   */\n      not\n        /* \"#utility.yul\":9739:9741   */\n      0x1f\n        /* \"#utility.yul\":9732:9737   */\n      dup4\n        /* \"#utility.yul\":9728:9742   */\n      add\n        /* \"#utility.yul\":9724:9752   */\n      and\n        /* \"#utility.yul\":9714:9752   */\n      swap1\n      pop\n        /* \"#utility.yul\":9656:9758   */\n      swap2\n      swap1\n      pop\n      jump\t// out\n        /* \"#utility.yul\":9764:10117   */\n    tag_80:\n        /* \"#utility.yul\":9840:9843   */\n      0x00\n        /* \"#utility.yul\":9868:9906   */\n      tag_187\n        /* \"#utility.yul\":9900:9905   */\n      dup3\n        /* \"#utility.yul\":9868:9906   */\n      tag_76\n      jump\t// in\n    tag_187:\n        /* \"#utility.yul\":9922:9982   */\n      tag_188\n        /* \"#utility.yul\":9975:9981   */\n      dup2\n        /* \"#utility.yul\":9970:9973   */\n      dup6\n        /* \"#utility.yul\":9922:9982   */\n      tag_77\n      jump\t// in\n    tag_188:\n        /* \"#utility.yul\":9915:9982   */\n      swap4\n      pop\n        /* \"#utility.yul\":9991:10056   */\n      tag_189\n        /* \"#utility.yul\":10049:10055   */\n      dup2\n        /* \"#utility.yul\":10044:10047   */\n      dup6\n        /* \"#utility.yul\":10037:10041   */\n      0x20\n        /* \"#utility.yul\":10030:10035   */\n      dup7\n        /* \"#utility.yul\":10026:10042   */\n      add\n        /* \"#utility.yul\":9991:10056   */\n      tag_78\n      jump\t// in\n    tag_189:\n        /* \"#utility.yul\":10081:10110   */\n      tag_190\n        /* \"#utility.yul\":10103:10109   */\n      dup2\n        /* \"#utility.yul\":10081:10110   */\n      tag_79\n      jump\t// in\n    tag_190:\n        /* \"#utility.yul\":10076:10079   */\n      dup5\n        /* \"#utility.yul\":10072:10111   */\n      add\n        /* \"#utility.yul\":10065:10111   */\n      swap2\n      pop\n        /* \"#utility.yul\":9844:10117   */\n      pop\n        /* \"#utility.yul\":9764:10117   */\n      swap3\n      swap2\n      pop\n      pop\n      jump\t// out\n        /* \"#utility.yul\":10205:11372   */\n    tag_81:\n        /* \"#utility.yul\":10340:10343   */\n      0x00\n        /* \"#utility.yul\":10376:10380   */\n      0xa0\n        /* \"#utility.yul\":10371:10374   */\n      dup4\n        /* \"#utility.yul\":10367:10381   */\n      add\n        /* \"#utility.yul\":10463:10467   */\n      0x00\n        /* \"#utility.yul\":10456:10461   */\n      dup4\n        /* \"#utility.yul\":10452:10468   */\n      add\n        /* \"#utility.yul\":10446:10469   */\n      mload\n        /* \"#utility.yul\":10516:10519   */\n      dup5\n        /* \"#utility.yul\":10510:10514   */\n      dup3\n        /* \"#utility.yul\":10506:10520   */\n      sub\n        /* \"#utility.yul\":10499:10503   */\n      0x00\n        /* \"#utility.yul\":10494:10497   */\n      dup7\n        /* \"#utility.yul\":10490:10504   */\n      add\n        /* \"#utility.yul\":10483:10521   */\n      mstore\n        /* \"#utility.yul\":10542:10613   */\n      tag_192\n        /* \"#utility.yul\":10608:10612   */\n      dup3\n        /* \"#utility.yul\":10594:10606   */\n      dup3\n        /* \"#utility.yul\":10542:10613   */\n      tag_80\n      jump\t// in\n    tag_192:\n        /* \"#utility.yul\":10534:10613   */\n      swap2\n      pop\n        /* \"#utility.yul\":10391:10624   */\n      pop\n        /* \"#utility.yul\":10711:10715   */\n      0x20\n        /* \"#utility.yul\":10704:10709   */\n      dup4\n        /* \"#utility.yul\":10700:10716   */\n      add\n        /* \"#utility.yul\":10694:10717   */\n      mload\n        /* \"#utility.yul\":10730:10793   */\n      tag_193\n        /* \"#utility.yul\":10787:10791   */\n      0x20\n        /* \"#utility.yul\":10782:10785   */\n      dup7\n        /* \"#utility.yul\":10778:10792   */\n      add\n        /* \"#utility.yul\":10764:10776   */\n      dup3\n        /* \"#utility.yul\":10730:10793   */\n      tag_70\n      jump\t// in\n    tag_193:\n        /* \"#utility.yul\":10634:10803   */\n      pop\n        /* \"#utility.yul\":10889:10893   */\n      0x40\n        /* \"#utility.yul\":10882:10887   */\n      dup4\n        /* \"#utility.yul\":10878:10894   */\n      add\n        /* \"#utility.yul\":10872:10895   */\n      mload\n        /* \"#utility.yul\":10908:10971   */\n      tag_194\n        /* \"#utility.yul\":10965:10969   */\n      0x40\n        /* \"#utility.yul\":10960:10963   */\n      dup7\n        /* \"#utility.yul\":10956:10970   */\n      add\n        /* \"#utility.yul\":10942:10954   */\n      dup3\n        /* \"#utility.yul\":10908:10971   */\n      tag_72\n      jump\t// in\n    tag_194:\n        /* \"#utility.yul\":10813:10981   */\n      pop\n        /* \"#utility.yul\":11067:11071   */\n      0x60\n        /* \"#utility.yul\":11060:11065   */\n      dup4\n        /* \"#utility.yul\":11056:11072   */\n      add\n        /* \"#utility.yul\":11050:11073   */\n      mload\n        /* \"#utility.yul\":11086:11149   */\n      tag_195\n        /* \"#utility.yul\":11143:11147   */\n      0x60\n        /* \"#utility.yul\":11138:11141   */\n      dup7\n        /* \"#utility.yul\":11134:11148   */\n      add\n        /* \"#utility.yul\":11120:11132   */\n      dup3\n        /* \"#utility.yul\":11086:11149   */\n      tag_72\n      jump\t// in\n    tag_195:\n        /* \"#utility.yul\":10991:11159   */\n      pop\n        /* \"#utility.yul\":11253:11257   */\n      0x80\n        /* \"#utility.yul\":11246:11251   */\n      dup4\n        /* \"#utility.yul\":11242:11258   */\n      add\n        /* \"#utility.yul\":11236:11259   */\n      mload\n        /* \"#utility.yul\":11272:11335   */\n      tag_196\n        /* \"#utility.yul\":11329:11333   */\n      0x80\n        /* \"#utility.yul\":11324:11327   */\n      dup7\n        /* \"#utility.yul\":11320:11334   */\n      add\n        /* \"#utility.yul\":11306:11318   */\n      dup3\n        /* \"#utility.yul\":11272:11335   */\n      tag_72\n      jump\t// in\n    tag_196:\n        /* \"#utility.yul\":11169:11345   */\n      pop\n        /* \"#utility.yul\":11362:11366   */\n      dup1\n        /* \"#utility.yul\":11355:11366   */\n      swap2\n      pop\n        /* \"#utility.yul\":10345:11372   */\n      pop\n        /* \"#utility.yul\":10205:11372   */\n      swap3\n      swap2\n      pop\n      pop\n      jump\t// out\n        /* \"#utility.yul\":11378:11783   */\n    tag_44:\n        /* \"#utility.yul\":11537:11541   */\n      0x00\n        /* \"#utility.yul\":11575:11577   */\n      0x20\n        /* \"#utility.yul\":11564:11573   */\n      dup3\n        /* \"#utility.yul\":11560:11578   */\n      add\n        /* \"#utility.yul\":11552:11578   */\n      swap1\n      pop\n        /* \"#utility.yul\":11624:11633   */\n      dup2\n        /* \"#utility.yul\":11618:11622   */\n      dup2\n        /* \"#utility.yul\":11614:11634   */\n      sub\n        /* \"#utility.yul\":11610:11611   */\n      0x00\n        /* \"#utility.yul\":11599:11608   */\n      dup4\n        /* \"#utility.yul\":11595:11612   */\n      add\n        /* \"#utility.yul\":11588:11635   */\n      mstore\n        /* \"#utility.yul\":11652:11776   */\n      tag_198\n        /* \"#utility.yul\":11771:11775   */\n      dup2\n        /* \"#utility.yul\":11762:11768   */\n      dup5\n        /* \"#utility.yul\":11652:11776   */\n      tag_81\n      jump\t// in\n    tag_198:\n        /* \"#utility.yul\":11644:11776   */\n      swap1\n      pop\n        /* \"#utility.yul\":11378:11783   */\n      swap3\n      swap2\n      pop\n      pop\n      jump\t// out\n\n    auxdata: 0xa2646970667358221220309ea0373ab928f0cf9a817ea94b0bfaf238c66113c2c01598096abfc61eeeb664736f6c63430008140033\n}\n",
				"bytecode": {
					"linkReferences": {},
					"object": "608060405234801561000f575f80fd5b50610a818061001d5f395ff3fe608060405234801561000f575f80fd5b5060043610610034575f3560e01c80639384275114610038578063b57084f714610068575b5f80fd5b610052600480360381019061004d91906105d0565b610098565b60405161005f9190610643565b60405180910390f35b610082600480360381019061007d91906106bd565b6102d9565b60405161008f9190610643565b60405180910390f35b5f8473ffffffffffffffffffffffffffffffffffffffff166323b872dd3330856040518463ffffffff1660e01b81526004016100d69392919061073d565b6020604051808303815f875af11580156100f2573d5f803e3d5ffd5b505050506040513d601f19601f8201168201806040525081019061011691906107a7565b508473ffffffffffffffffffffffffffffffffffffffff1663095ea7b373e592427a0aece92de3edee1f18e0157c05861564846040518363ffffffff1660e01b81526004016101669291906107d2565b6020604051808303815f875af1158015610182573d5f803e3d5ffd5b505050506040513d601f19601f820116820180604052508101906101a691906107a7565b505f6040518061010001604052808773ffffffffffffffffffffffffffffffffffffffff1681526020018673ffffffffffffffffffffffffffffffffffffffff1681526020018562ffffff1681526020013373ffffffffffffffffffffffffffffffffffffffff1681526020014281526020018481526020015f81526020015f73ffffffffffffffffffffffffffffffffffffffff16815250905073e592427a0aece92de3edee1f18e0157c0586156473ffffffffffffffffffffffffffffffffffffffff1663414bf389826040518263ffffffff1660e01b815260040161028e91906108d5565b6020604051808303815f875af11580156102aa573d5f803e3d5ffd5b505050506040513d601f19601f820116820180604052508101906102ce9190610903565b915050949350505050565b5f8273ffffffffffffffffffffffffffffffffffffffff166323b872dd3330856040518463ffffffff1660e01b81526004016103179392919061073d565b6020604051808303815f875af1158015610333573d5f803e3d5ffd5b505050506040513d601f19601f8201168201806040525081019061035791906107a7565b508273ffffffffffffffffffffffffffffffffffffffff1663095ea7b373e592427a0aece92de3edee1f18e0157c05861564846040518363ffffffff1660e01b81526004016103a79291906107d2565b6020604051808303815f875af11580156103c3573d5f803e3d5ffd5b505050506040513d601f19601f820116820180604052508101906103e791906107a7565b505f6040518060a0016040528087878080601f0160208091040260200160405190810160405280939291908181526020018383808284375f81840152601f19601f8201169050808301925050505050505081526020013373ffffffffffffffffffffffffffffffffffffffff1681526020014281526020018481526020015f815250905073e592427a0aece92de3edee1f18e0157c0586156473ffffffffffffffffffffffffffffffffffffffff1663c04b8d59826040518263ffffffff1660e01b81526004016104b89190610a2b565b6020604051808303815f875af11580156104d4573d5f803e3d5ffd5b505050506040513d601f19601f820116820180604052508101906104f89190610903565b915050949350505050565b5f80fd5b5f80fd5b5f73ffffffffffffffffffffffffffffffffffffffff82169050919050565b5f6105348261050b565b9050919050565b6105448161052a565b811461054e575f80fd5b50565b5f8135905061055f8161053b565b92915050565b5f62ffffff82169050919050565b61057c81610565565b8114610586575f80fd5b50565b5f8135905061059781610573565b92915050565b5f819050919050565b6105af8161059d565b81146105b9575f80fd5b50565b5f813590506105ca816105a6565b92915050565b5f805f80608085870312156105e8576105e7610503565b5b5f6105f587828801610551565b945050602061060687828801610551565b935050604061061787828801610589565b9250506060610628878288016105bc565b91505092959194509250565b61063d8161059d565b82525050565b5f6020820190506106565f830184610634565b92915050565b5f80fd5b5f80fd5b5f80fd5b5f8083601f84011261067d5761067c61065c565b5b8235905067ffffffffffffffff81111561069a57610699610660565b5b6020830191508360018202830111156106b6576106b5610664565b5b9250929050565b5f805f80606085870312156106d5576106d4610503565b5b5f85013567ffffffffffffffff8111156106f2576106f1610507565b5b6106fe87828801610668565b9450945050602061071187828801610551565b9250506040610722878288016105bc565b91505092959194509250565b6107378161052a565b82525050565b5f6060820190506107505f83018661072e565b61075d602083018561072e565b61076a6040830184610634565b949350505050565b5f8115159050919050565b61078681610772565b8114610790575f80fd5b50565b5f815190506107a18161077d565b92915050565b5f602082840312156107bc576107bb610503565b5b5f6107c984828501610793565b91505092915050565b5f6040820190506107e55f83018561072e565b6107f26020830184610634565b9392505050565b6108028161052a565b82525050565b61081181610565565b82525050565b6108208161059d565b82525050565b61082f8161050b565b82525050565b61010082015f82015161084a5f8501826107f9565b50602082015161085d60208501826107f9565b5060408201516108706040850182610808565b50606082015161088360608501826107f9565b5060808201516108966080850182610817565b5060a08201516108a960a0850182610817565b5060c08201516108bc60c0850182610817565b5060e08201516108cf60e0850182610826565b50505050565b5f610100820190506108e95f830184610835565b92915050565b5f815190506108fd816105a6565b92915050565b5f6020828403121561091857610917610503565b5b5f610925848285016108ef565b91505092915050565b5f81519050919050565b5f82825260208201905092915050565b5f5b8381101561096557808201518184015260208101905061094a565b5f8484015250505050565b5f601f19601f8301169050919050565b5f61098a8261092e565b6109948185610938565b93506109a4818560208601610948565b6109ad81610970565b840191505092915050565b5f60a083015f8301518482035f8601526109d28282610980565b91505060208301516109e760208601826107f9565b5060408301516109fa6040860182610817565b506060830151610a0d6060860182610817565b506080830151610a206080860182610817565b508091505092915050565b5f6020820190508181035f830152610a4381846109b8565b90509291505056fea2646970667358221220309ea0373ab928f0cf9a817ea94b0bfaf238c66113c2c01598096abfc61eeeb664736f6c63430008140033",
					"opcodes": "PUSH1 0x80 PUSH1 0x40 MSTORE CALLVALUE DUP1 ISZERO PUSH2 0xF JUMPI PUSH0 DUP1 REVERT JUMPDEST POP PUSH2 0xA81 DUP1 PUSH2 0x1D PUSH0 CODECOPY PUSH0 RETURN INVALID PUSH1 0x80 PUSH1 0x40 MSTORE CALLVALUE DUP1 ISZERO PUSH2 0xF JUMPI PUSH0 DUP1 REVERT JUMPDEST POP PUSH1 0x4 CALLDATASIZE LT PUSH2 0x34 JUMPI PUSH0 CALLDATALOAD PUSH1 0xE0 SHR DUP1 PUSH4 0x93842751 EQ PUSH2 0x38 JUMPI DUP1 PUSH4 0xB57084F7 EQ PUSH2 0x68 JUMPI JUMPDEST PUSH0 DUP1 REVERT JUMPDEST PUSH2 0x52 PUSH1 0x4 DUP1 CALLDATASIZE SUB DUP2 ADD SWAP1 PUSH2 0x4D SWAP2 SWAP1 PUSH2 0x5D0 JUMP JUMPDEST PUSH2 0x98 JUMP JUMPDEST PUSH1 0x40 MLOAD PUSH2 0x5F SWAP2 SWAP1 PUSH2 0x643 JUMP JUMPDEST PUSH1 0x40 MLOAD DUP1 SWAP2 SUB SWAP1 RETURN JUMPDEST PUSH2 0x82 PUSH1 0x4 DUP1 CALLDATASIZE SUB DUP2 ADD SWAP1 PUSH2 0x7D SWAP2 SWAP1 PUSH2 0x6BD JUMP JUMPDEST PUSH2 0x2D9 JUMP JUMPDEST PUSH1 0x40 MLOAD PUSH2 0x8F SWAP2 SWAP1 PUSH2 0x643 JUMP JUMPDEST PUSH1 0x40 MLOAD DUP1 SWAP2 SUB SWAP1 RETURN JUMPDEST PUSH0 DUP5 PUSH20 0xFFFFFFFFFFFFFFFFFFFFFFFFFFFFFFFFFFFFFFFF AND PUSH4 0x23B872DD CALLER ADDRESS DUP6 PUSH1 0x40 MLOAD DUP5 PUSH4 0xFFFFFFFF AND PUSH1 0xE0 SHL DUP2 MSTORE PUSH1 0x4 ADD PUSH2 0xD6 SWAP4 SWAP3 SWAP2 SWAP1 PUSH2 0x73D JUMP JUMPDEST PUSH1 0x20 PUSH1 0x40 MLOAD DUP1 DUP4 SUB DUP2 PUSH0 DUP8 GAS CALL ISZERO DUP1 ISZERO PUSH2 0xF2 JUMPI RETURNDATASIZE PUSH0 DUP1 RETURNDATACOPY RETURNDATASIZE PUSH0 REVERT JUMPDEST POP POP POP POP PUSH1 0x40 MLOAD RETURNDATASIZE PUSH1 0x1F NOT PUSH1 0x1F DUP3 ADD AND DUP3 ADD DUP1 PUSH1 0x40 MSTORE POP DUP2 ADD SWAP1 PUSH2 0x116 SWAP2 SWAP1 PUSH2 0x7A7 JUMP JUMPDEST POP DUP5 PUSH20 0xFFFFFFFFFFFFFFFFFFFFFFFFFFFFFFFFFFFFFFFF AND PUSH4 0x95EA7B3 PUSH20 0xE592427A0AECE92DE3EDEE1F18E0157C05861564 DUP5 PUSH1 0x40 MLOAD DUP4 PUSH4 0xFFFFFFFF AND PUSH1 0xE0 SHL DUP2 MSTORE PUSH1 0x4 ADD PUSH2 0x166 SWAP3 SWAP2 SWAP1 PUSH2 0x7D2 JUMP JUMPDEST PUSH1 0x20 PUSH1 0x40 MLOAD DUP1 DUP4 SUB DUP2 PUSH0 DUP8 GAS CALL ISZERO DUP1 ISZERO PUSH2 0x182 JUMPI RETURNDATASIZE PUSH0 DUP1 RETURNDATACOPY RETURNDATASIZE PUSH0 REVERT JUMPDEST POP POP POP POP PUSH1 0x40 MLOAD RETURNDATASIZE PUSH1 0x1F NOT PUSH1 0x1F DUP3 ADD AND DUP3 ADD DUP1 PUSH1 0x40 MSTORE POP DUP2 ADD SWAP1 PUSH2 0x1A6 SWAP2 SWAP1 PUSH2 0x7A7 JUMP JUMPDEST POP PUSH0 PUSH1 0x40 MLOAD DUP1 PUSH2 0x100 ADD PUSH1 0x40 MSTORE DUP1 DUP8 PUSH20 0xFFFFFFFFFFFFFFFFFFFFFFFFFFFFFFFFFFFFFFFF AND DUP2 MSTORE PUSH1 0x20 ADD DUP7 PUSH20 0xFFFFFFFFFFFFFFFFFFFFFFFFFFFFFFFFFFFFFFFF AND DUP2 MSTORE PUSH1 0x20 ADD DUP6 PUSH3 0xFFFFFF AND DUP2 MSTORE PUSH1 0x20 ADD CALLER PUSH20 0xFFFFFFFFFFFFFFFFFFFFFFFFFFFFFFFFFFFFFFFF AND DUP2 MSTORE PUSH1 0x20 ADD TIMESTAMP DUP2 MSTORE PUSH1 0x20 ADD DUP5 DUP2 MSTORE PUSH1 0x20 ADD PUSH0 DUP2 MSTORE PUSH1 0x20 ADD PUSH0 PUSH20 0xFFFFFFFFFFFFFFFFFFFFFFFFFFFFFFFFFFFFFFFF AND DUP2 MSTORE POP SWAP1 POP PUSH20 0xE592427A0AECE92DE3EDEE1F18E0157C05861564 PUSH20 0xFFFFFFFFFFFFFFFFFFFFFFFFFFFFFFFFFFFFFFFF AND PUSH4 0x414BF389 DUP3 PUSH1 0x40 MLOAD DUP3 PUSH4 0xFFFFFFFF AND PUSH1 0xE0 SHL DUP2 MSTORE PUSH1 0x4 ADD PUSH2 0x28E SWAP2 SWAP1 PUSH2 0x8D5 JUMP JUMPDEST PUSH1 0x20 PUSH1 0x40 MLOAD DUP1 DUP4 SUB DUP2 PUSH0 DUP8 GAS CALL ISZERO DUP1 ISZERO PUSH2 0x2AA JUMPI RETURNDATASIZE PUSH0 DUP1 RETURNDATACOPY RETURNDATASIZE PUSH0 REVERT JUMPDEST POP POP POP POP PUSH1 0x40 MLOAD RETURNDATASIZE PUSH1 0x1F NOT PUSH1 0x1F DUP3 ADD AND DUP3 ADD DUP1 PUSH1 0x40 MSTORE POP DUP2 ADD SWAP1 PUSH2 0x2CE SWAP2 SWAP1 PUSH2 0x903 JUMP JUMPDEST SWAP2 POP POP SWAP5 SWAP4 POP POP POP POP JUMP JUMPDEST PUSH0 DUP3 PUSH20 0xFFFFFFFFFFFFFFFFFFFFFFFFFFFFFFFFFFFFFFFF AND PUSH4 0x23B872DD CALLER ADDRESS DUP6 PUSH1 0x40 MLOAD DUP5 PUSH4 0xFFFFFFFF AND PUSH1 0xE0 SHL DUP2 MSTORE PUSH1 0x4 ADD PUSH2 0x317 SWAP4 SWAP3 SWAP2 SWAP1 PUSH2 0x73D JUMP JUMPDEST PUSH1 0x20 PUSH1 0x40 MLOAD DUP1 DUP4 SUB DUP2 PUSH0 DUP8 GAS CALL ISZERO DUP1 ISZERO PUSH2 0x333 JUMPI RETURNDATASIZE PUSH0 DUP1 RETURNDATACOPY RETURNDATASIZE PUSH0 REVERT JUMPDEST POP POP POP POP PUSH1 0x40 MLOAD RETURNDATASIZE PUSH1 0x1F NOT PUSH1 0x1F DUP3 ADD AND DUP3 ADD DUP1 PUSH1 0x40 MSTORE POP DUP2 ADD SWAP1 PUSH2 0x357 SWAP2 SWAP1 PUSH2 0x7A7 JUMP JUMPDEST POP DUP3 PUSH20 0xFFFFFFFFFFFFFFFFFFFFFFFFFFFFFFFFFFFFFFFF AND PUSH4 0x95EA7B3 PUSH20 0xE592427A0AECE92DE3EDEE1F18E0157C05861564 DUP5 PUSH1 0x40 MLOAD DUP4 PUSH4 0xFFFFFFFF AND PUSH1 0xE0 SHL DUP2 MSTORE PUSH1 0x4 ADD PUSH2 0x3A7 SWAP3 SWAP2 SWAP1 PUSH2 0x7D2 JUMP JUMPDEST PUSH1 0x20 PUSH1 0x40 MLOAD DUP1 DUP4 SUB DUP2 PUSH0 DUP8 GAS CALL ISZERO DUP1 ISZERO PUSH2 0x3C3 JUMPI RETURNDATASIZE PUSH0 DUP1 RETURNDATACOPY RETURNDATASIZE PUSH0 REVERT JUMPDEST POP POP POP POP PUSH1 0x40 MLOAD RETURNDATASIZE PUSH1 0x1F NOT PUSH1 0x1F DUP3 ADD AND DUP3 ADD DUP1 PUSH1 0x40 MSTORE POP DUP2 ADD SWAP1 PUSH2 0x3E7 SWAP2 SWAP1 PUSH2 0x7A7 JUMP JUMPDEST POP PUSH0 PUSH1 0x40 MLOAD DUP1 PUSH1 0xA0 ADD PUSH1 0x40 MSTORE DUP1 DUP8 DUP8 DUP1 DUP1 PUSH1 0x1F ADD PUSH1 0x20 DUP1 SWAP2 DIV MUL PUSH1 0x20 ADD PUSH1 0x40 MLOAD SWAP1 DUP2 ADD PUSH1 0x40 MSTORE DUP1 SWAP4 SWAP3 SWAP2 SWAP1 DUP2 DUP2 MSTORE PUSH1 0x20 ADD DUP4 DUP4 DUP1 DUP3 DUP5 CALLDATACOPY PUSH0 DUP2 DUP5 ADD MSTORE PUSH1 0x1F NOT PUSH1 0x1F DUP3 ADD AND SWAP1 POP DUP1 DUP4 ADD SWAP3 POP POP POP POP POP POP POP DUP2 MSTORE PUSH1 0x20 ADD CALLER PUSH20 0xFFFFFFFFFFFFFFFFFFFFFFFFFFFFFFFFFFFFFFFF AND DUP2 MSTORE PUSH1 0x20 ADD TIMESTAMP DUP2 MSTORE PUSH1 0x20 ADD DUP5 DUP2 MSTORE PUSH1 0x20 ADD PUSH0 DUP2 MSTORE POP SWAP1 POP PUSH20 0xE592427A0AECE92DE3EDEE1F18E0157C05861564 PUSH20 0xFFFFFFFFFFFFFFFFFFFFFFFFFFFFFFFFFFFFFFFF AND PUSH4 0xC04B8D59 DUP3 PUSH1 0x40 MLOAD DUP3 PUSH4 0xFFFFFFFF AND PUSH1 0xE0 SHL DUP2 MSTORE PUSH1 0x4 ADD PUSH2 0x4B8 SWAP2 SWAP1 PUSH2 0xA2B JUMP JUMPDEST PUSH1 0x20 PUSH1 0x40 MLOAD DUP1 DUP4 SUB DUP2 PUSH0 DUP8 GAS CALL ISZERO DUP1 ISZERO PUSH2 0x4D4 JUMPI RETURNDATASIZE PUSH0 DUP1 RETURNDATACOPY RETURNDATASIZE PUSH0 REVERT JUMPDEST POP POP POP POP PUSH1 0x40 MLOAD RETURNDATASIZE PUSH1 0x1F NOT PUSH1 0x1F DUP3 ADD AND DUP3 ADD DUP1 PUSH1 0x40 MSTORE POP DUP2 ADD SWAP1 PUSH2 0x4F8 SWAP2 SWAP1 PUSH2 0x903 JUMP JUMPDEST SWAP2 POP POP SWAP5 SWAP4 POP POP POP POP JUMP JUMPDEST PUSH0 DUP1 REVERT JUMPDEST PUSH0 DUP1 REVERT JUMPDEST PUSH0 PUSH20 0xFFFFFFFFFFFFFFFFFFFFFFFFFFFFFFFFFFFFFFFF DUP3 AND SWAP1 POP SWAP2 SWAP1 POP JUMP JUMPDEST PUSH0 PUSH2 0x534 DUP3 PUSH2 0x50B JUMP JUMPDEST SWAP1 POP SWAP2 SWAP1 POP JUMP JUMPDEST PUSH2 0x544 DUP2 PUSH2 0x52A JUMP JUMPDEST DUP2 EQ PUSH2 0x54E JUMPI PUSH0 DUP1 REVERT JUMPDEST POP JUMP JUMPDEST PUSH0 DUP2 CALLDATALOAD SWAP1 POP PUSH2 0x55F DUP2 PUSH2 0x53B JUMP JUMPDEST SWAP3 SWAP2 POP POP JUMP JUMPDEST PUSH0 PUSH3 0xFFFFFF DUP3 AND SWAP1 POP SWAP2 SWAP1 POP JUMP JUMPDEST PUSH2 0x57C DUP2 PUSH2 0x565 JUMP JUMPDEST DUP2 EQ PUSH2 0x586 JUMPI PUSH0 DUP1 REVERT JUMPDEST POP JUMP JUMPDEST PUSH0 DUP2 CALLDATALOAD SWAP1 POP PUSH2 0x597 DUP2 PUSH2 0x573 JUMP JUMPDEST SWAP3 SWAP2 POP POP JUMP JUMPDEST PUSH0 DUP2 SWAP1 POP SWAP2 SWAP1 POP JUMP JUMPDEST PUSH2 0x5AF DUP2 PUSH2 0x59D JUMP JUMPDEST DUP2 EQ PUSH2 0x5B9 JUMPI PUSH0 DUP1 REVERT JUMPDEST POP JUMP JUMPDEST PUSH0 DUP2 CALLDATALOAD SWAP1 POP PUSH2 0x5CA DUP2 PUSH2 0x5A6 JUMP JUMPDEST SWAP3 SWAP2 POP POP JUMP JUMPDEST PUSH0 DUP1 PUSH0 DUP1 PUSH1 0x80 DUP6 DUP8 SUB SLT ISZERO PUSH2 0x5E8 JUMPI PUSH2 0x5E7 PUSH2 0x503 JUMP JUMPDEST JUMPDEST PUSH0 PUSH2 0x5F5 DUP8 DUP3 DUP9 ADD PUSH2 0x551 JUMP JUMPDEST SWAP5 POP POP PUSH1 0x20 PUSH2 0x606 DUP8 DUP3 DUP9 ADD PUSH2 0x551 JUMP JUMPDEST SWAP4 POP POP PUSH1 0x40 PUSH2 0x617 DUP8 DUP3 DUP9 ADD PUSH2 0x589 JUMP JUMPDEST SWAP3 POP POP PUSH1 0x60 PUSH2 0x628 DUP8 DUP3 DUP9 ADD PUSH2 0x5BC JUMP JUMPDEST SWAP2 POP POP SWAP3 SWAP6 SWAP2 SWAP5 POP SWAP3 POP JUMP JUMPDEST PUSH2 0x63D DUP2 PUSH2 0x59D JUMP JUMPDEST DUP3 MSTORE POP POP JUMP JUMPDEST PUSH0 PUSH1 0x20 DUP3 ADD SWAP1 POP PUSH2 0x656 PUSH0 DUP4 ADD DUP5 PUSH2 0x634 JUMP JUMPDEST SWAP3 SWAP2 POP POP JUMP JUMPDEST PUSH0 DUP1 REVERT JUMPDEST PUSH0 DUP1 REVERT JUMPDEST PUSH0 DUP1 REVERT JUMPDEST PUSH0 DUP1 DUP4 PUSH1 0x1F DUP5 ADD SLT PUSH2 0x67D JUMPI PUSH2 0x67C PUSH2 0x65C JUMP JUMPDEST JUMPDEST DUP3 CALLDATALOAD SWAP1 POP PUSH8 0xFFFFFFFFFFFFFFFF DUP2 GT ISZERO PUSH2 0x69A JUMPI PUSH2 0x699 PUSH2 0x660 JUMP JUMPDEST JUMPDEST PUSH1 0x20 DUP4 ADD SWAP2 POP DUP4 PUSH1 0x1 DUP3 MUL DUP4 ADD GT ISZERO PUSH2 0x6B6 JUMPI PUSH2 0x6B5 PUSH2 0x664 JUMP JUMPDEST JUMPDEST SWAP3 POP SWAP3 SWAP1 POP JUMP JUMPDEST PUSH0 DUP1 PUSH0 DUP1 PUSH1 0x60 DUP6 DUP8 SUB SLT ISZERO PUSH2 0x6D5 JUMPI PUSH2 0x6D4 PUSH2 0x503 JUMP JUMPDEST JUMPDEST PUSH0 DUP6 ADD CALLDATALOAD PUSH8 0xFFFFFFFFFFFFFFFF DUP2 GT ISZERO PUSH2 0x6F2 JUMPI PUSH2 0x6F1 PUSH2 0x507 JUMP JUMPDEST JUMPDEST PUSH2 0x6FE DUP8 DUP3 DUP9 ADD PUSH2 0x668 JUMP JUMPDEST SWAP5 POP SWAP5 POP POP PUSH1 0x20 PUSH2 0x711 DUP8 DUP3 DUP9 ADD PUSH2 0x551 JUMP JUMPDEST SWAP3 POP POP PUSH1 0x40 PUSH2 0x722 DUP8 DUP3 DUP9 ADD PUSH2 0x5BC JUMP JUMPDEST SWAP2 POP POP SWAP3 SWAP6 SWAP2 SWAP5 POP SWAP3 POP JUMP JUMPDEST PUSH2 0x737 DUP2 PUSH2 0x52A JUMP JUMPDEST DUP3 MSTORE POP POP JUMP JUMPDEST PUSH0 PUSH1 0x60 DUP3 ADD SWAP1 POP PUSH2 0x750 PUSH0 DUP4 ADD DUP7 PUSH2 0x72E JUMP JUMPDEST PUSH2 0x75D PUSH1 0x20 DUP4 ADD DUP6 PUSH2 0x72E JUMP JUMPDEST PUSH2 0x76A PUSH1 0x40 DUP4 ADD DUP5 PUSH2 0x634 JUMP JUMPDEST SWAP5 SWAP4 POP POP POP POP JUMP JUMPDEST PUSH0 DUP2 ISZERO ISZERO SWAP1 POP SWAP2 SWAP1 POP JUMP JUMPDEST PUSH2 0x786 DUP2 PUSH2 0x772 JUMP JUMPDEST DUP2 EQ PUSH2 0x790 JUMPI PUSH0 DUP1 REVERT JUMPDEST POP JUMP JUMPDEST PUSH0 DUP2 MLOAD SWAP1 POP PUSH2 0x7A1 DUP2 PUSH2 0x77D JUMP JUMPDEST SWAP3 SWAP2 POP POP JUMP JUMPDEST PUSH0 PUSH1 0x20 DUP3 DUP5 SUB SLT ISZERO PUSH2 0x7BC JUMPI PUSH2 0x7BB PUSH2 0x503 JUMP JUMPDEST JUMPDEST PUSH0 PUSH2 0x7C9 DUP5 DUP3 DUP6 ADD PUSH2 0x793 JUMP JUMPDEST SWAP2 POP POP SWAP3 SWAP2 POP POP JUMP JUMPDEST PUSH0 PUSH1 0x40 DUP3 ADD SWAP1 POP PUSH2 0x7E5 PUSH0 DUP4 ADD DUP6 PUSH2 0x72E JUMP JUMPDEST PUSH2 0x7F2 PUSH1 0x20 DUP4 ADD DUP5 PUSH2 0x634 JUMP JUMPDEST SWAP4 SWAP3 POP POP POP JUMP JUMPDEST PUSH2 0x802 DUP2 PUSH2 0x52A JUMP JUMPDEST DUP3 MSTORE POP POP JUMP JUMPDEST PUSH2 0x811 DUP2 PUSH2 0x565 JUMP JUMPDEST DUP3 MSTORE POP POP JUMP JUMPDEST PUSH2 0x820 DUP2 PUSH2 0x59D JUMP JUMPDEST DUP3 MSTORE POP POP JUMP JUMPDEST PUSH2 0x82F DUP2 PUSH2 0x50B JUMP JUMPDEST DUP3 MSTORE POP POP JUMP JUMPDEST PUSH2 0x100 DUP3 ADD PUSH0 DUP3 ADD MLOAD PUSH2 0x84A PUSH0 DUP6 ADD DUP3 PUSH2 0x7F9 JUMP JUMPDEST POP PUSH1 0x20 DUP3 ADD MLOAD PUSH2 0x85D PUSH1 0x20 DUP6 ADD DUP3 PUSH2 0x7F9 JUMP JUMPDEST POP PUSH1 0x40 DUP3 ADD MLOAD PUSH2 0x870 PUSH1 0x40 DUP6 ADD DUP3 PUSH2 0x808 JUMP JUMPDEST POP PUSH1 0x60 DUP3 ADD MLOAD PUSH2 0x883 PUSH1 0x60 DUP6 ADD DUP3 PUSH2 0x7F9 JUMP JUMPDEST POP PUSH1 0x80 DUP3 ADD MLOAD PUSH2 0x896 PUSH1 0x80 DUP6 ADD DUP3 PUSH2 0x817 JUMP JUMPDEST POP PUSH1 0xA0 DUP3 ADD MLOAD PUSH2 0x8A9 PUSH1 0xA0 DUP6 ADD DUP3 PUSH2 0x817 JUMP JUMPDEST POP PUSH1 0xC0 DUP3 ADD MLOAD PUSH2 0x8BC PUSH1 0xC0 DUP6 ADD DUP3 PUSH2 0x817 JUMP JUMPDEST POP PUSH1 0xE0 DUP3 ADD MLOAD PUSH2 0x8CF PUSH1 0xE0 DUP6 ADD DUP3 PUSH2 0x826 JUMP JUMPDEST POP POP POP POP JUMP JUMPDEST PUSH0 PUSH2 0x100 DUP3 ADD SWAP1 POP PUSH2 0x8E9 PUSH0 DUP4 ADD DUP5 PUSH2 0x835 JUMP JUMPDEST SWAP3 SWAP2 POP POP JUMP JUMPDEST PUSH0 DUP2 MLOAD SWAP1 POP PUSH2 0x8FD DUP2 PUSH2 0x5A6 JUMP JUMPDEST SWAP3 SWAP2 POP POP JUMP JUMPDEST PUSH0 PUSH1 0x20 DUP3 DUP5 SUB SLT ISZERO PUSH2 0x918 JUMPI PUSH2 0x917 PUSH2 0x503 JUMP JUMPDEST JUMPDEST PUSH0 PUSH2 0x925 DUP5 DUP3 DUP6 ADD PUSH2 0x8EF JUMP JUMPDEST SWAP2 POP POP SWAP3 SWAP2 POP POP JUMP JUMPDEST PUSH0 DUP2 MLOAD SWAP1 POP SWAP2 SWAP1 POP JUMP JUMPDEST PUSH0 DUP3 DUP3 MSTORE PUSH1 0x20 DUP3 ADD SWAP1 POP SWAP3 SWAP2 POP POP JUMP JUMPDEST PUSH0 JUMPDEST DUP4 DUP2 LT ISZERO PUSH2 0x965 JUMPI DUP1 DUP3 ADD MLOAD DUP2 DUP5 ADD MSTORE PUSH1 0x20 DUP2 ADD SWAP1 POP PUSH2 0x94A JUMP JUMPDEST PUSH0 DUP5 DUP5 ADD MSTORE POP POP POP POP JUMP JUMPDEST PUSH0 PUSH1 0x1F NOT PUSH1 0x1F DUP4 ADD AND SWAP1 POP SWAP2 SWAP1 POP JUMP JUMPDEST PUSH0 PUSH2 0x98A DUP3 PUSH2 0x92E JUMP JUMPDEST PUSH2 0x994 DUP2 DUP6 PUSH2 0x938 JUMP JUMPDEST SWAP4 POP PUSH2 0x9A4 DUP2 DUP6 PUSH1 0x20 DUP7 ADD PUSH2 0x948 JUMP JUMPDEST PUSH2 0x9AD DUP2 PUSH2 0x970 JUMP JUMPDEST DUP5 ADD SWAP2 POP POP SWAP3 SWAP2 POP POP JUMP JUMPDEST PUSH0 PUSH1 0xA0 DUP4 ADD PUSH0 DUP4 ADD MLOAD DUP5 DUP3 SUB PUSH0 DUP7 ADD MSTORE PUSH2 0x9D2 DUP3 DUP3 PUSH2 0x980 JUMP JUMPDEST SWAP2 POP POP PUSH1 0x20 DUP4 ADD MLOAD PUSH2 0x9E7 PUSH1 0x20 DUP7 ADD DUP3 PUSH2 0x7F9 JUMP JUMPDEST POP PUSH1 0x40 DUP4 ADD MLOAD PUSH2 0x9FA PUSH1 0x40 DUP7 ADD DUP3 PUSH2 0x817 JUMP JUMPDEST POP PUSH1 0x60 DUP4 ADD MLOAD PUSH2 0xA0D PUSH1 0x60 DUP7 ADD DUP3 PUSH2 0x817 JUMP JUMPDEST POP PUSH1 0x80 DUP4 ADD MLOAD PUSH2 0xA20 PUSH1 0x80 DUP7 ADD DUP3 PUSH2 0x817 JUMP JUMPDEST POP DUP1 SWAP2 POP POP SWAP3 SWAP2 POP POP JUMP JUMPDEST PUSH0 PUSH1 0x20 DUP3 ADD SWAP1 POP DUP2 DUP2 SUB PUSH0 DUP4 ADD MSTORE PUSH2 0xA43 DUP2 DUP5 PUSH2 0x9B8 JUMP JUMPDEST SWAP1 POP SWAP3 SWAP2 POP POP JUMP INVALID LOG2 PUSH5 0x6970667358 0x22 SLT KECCAK256 ADDRESS SWAP15 LOG0 CALLDATACOPY GASPRICE 0xB9 0x28 CREATE 0xCF SWAP11 DUP2 PUSH31 0xA94B0BFAF238C66113C2C01598096ABFC61EEEB664736F6C63430008140033 "
				},
				"gasEstimates": {
					"creation": {
						"codeDepositCost": "537800",
						"executionCost": "573",
						"totalCost": "538373"
					},
					"external": {
						"swapExactInputMultiHop(bytes,address,uint256)": "infinite",
						"swapExactInputSingleHop(address,address,uint24,uint256)": "infinite"
					}
				},
				"methodIdentifiers": {
					"swapExactInputMultiHop(bytes,address,uint256)": "b57084f7",
					"swapExactInputSingleHop(address,address,uint24,uint256)": "93842751"
				}
			},
			"storageLayout": {
				"storage": [],
				"types": null
			},
			"userdoc": {
				"kind": "user",
				"methods": {},
				"version": 1
			}
		}
	}
}